:020000040800F2
:10000000A0250020690100087101000873010008A3
:1000100000000000000000000000000000000000E0
:100020000000000000000000000000007501000852
:100030000000000000000000770100089918000887
:100040007B0100087B0100087B0100087B010008A0
:100050007B0100087B0100087B010008990400086F
:100060007B0100087B0100087B0100087B01000880
:100070007B0100087B0100087B0100087B01000870
:100080007B0100087B0100087B0100087B01000860
:100090007B0100087B0100087B0100087B01000850
:1000A0007B0100087B0100087B010008B51A0008ED
:1000B0007B0100089D1900087B0100087B010008F6
:1000C0007B0100087B0100087B0100087B01000820
:1000D0007B0100087B010008000000007B01000894
:1000E0007B0100087B0100087B010008C1040008B7
:1000F00000000000000000000000000031040008C3
:1001000000000000000000000000000000000000EF
:100110000000000000000000000000007B0100085B
:100120007B0100087B0100087B0100087B010008BF
:100130007B010008190D00087B0100087B01000805
:100140007B0100087B0100087B0100087B0100089F
:100150007B0100080348854600F014F8004800477A
:100160005D2B0008A0250020044880470448004774
:10017000FEE7FEE7FEE7FEE7FEE7FEE7A918000858
:1001800055010008064C0125064E05E0E36807CC42
:100190002B430C3C98471034B442F7D3FFF7DEFFF3
:1001A000E03B0008003C000880B584B0E048C07A1D
:1001B000002824D1FFE7DE48408800281ED0FFE752
:1001C000DB484188491E41804088002812D1FFE762
:1001D000D748407A012807DBFFE7D6480168234863
:1001E00002F0CAFA0190FFE702A80021017001F0B5
:1001F00041FAFFE703A80021017031E0FFE71A4848
:100200000078002804D0FFE703A80021017027E050
:10021000C748C079002804D0FFE703A80021017077
:100220001EE02148407C002804D0FFE703A80021FD
:10023000017015E02B48407B002804D0FFE703A89D
:10024000002101700CE0BB48C079002804D0FFE712
:1002500003A80021017003E003A801210170FFE75A
:1002600003A8007804B080BD20010020D43A000823
:1002700080B582B001F070FB0B48407C002801D1B2
:10028000FFE70FE00848C17C491CC174C07C1428FA
:1002900008DBFFE7044800214174044802F06CFACF
:1002A0000190FFE702B080BD2E0100205A3B0008FC
:1002B00080B582B00B48407B002801D1FFE70FE0FA
:1002C0000848C17B491CC173C07B142808DBFFE7C9
:1002D000044800214173044802F04EFA0190FFE700
:1002E00002B080BD8C110020C83B000880B5DC48FE
:1002F000C07900280FD0FFE7D948C179491EC171E4
:10030000C079002806D1FFE7D44844F2000102F08A
:1003100006F8FFE7FFE780BDB0B586B0EC48F221F4
:10032000405C002801D1FFE77FE0E948F321405C11
:1003300008281CD1FFE7E648F421405C002815D0CE
:10034000FFE7E348F421425C521E4254F321425C31
:1003500005901046049101F05FF9202001F05CF94E
:1003600005980499405C01F057F9FFE758E0D84838
:10037000F421405C0F284DDCFFE7D548F321405CB9
:100380000A2806D0FFE7D248F321405C0D282AD185
:10039000FFE7CF48F421405C012814DBFFE7CC489D
:1003A000F421425C8218F5230D24D4540A220390D0
:1003B0001046029101F030F900F056F9002003993F
:1003C000029A88540EE0C248F321405C0A2808D102
:1003D000FFE7BD4801788268BC4802F0CDF9019082
:1003E000FFE7FFE715E0BA48F421405C0D280FDC79
:1003F000FFE7B748F321425CF423C45C0419F525F8
:100400006255C25C521CC254405C01F005F9FFE722
:10041000FFE704E0AE48F42100224254FFE7FFE783
:10042000AB48F22100224254FFE706B0B0BDC046FF
:1004300080B540F2004001F077FD01282AD1FFE7A6
:100440003B48807A002818D0FFE70920C00640F218
:10045000004101F07CFF002807D1FFE70920C0061A
:1004600040F6000101F05BFF06E00920C00640F6FF
:10047000000101F060FFFFE7FFE7784844F2000168
:1004800001F059FF76480321C17140F2004001F0AC
:1004900041FDFFE780BDC04680B5022001F044FD6C
:1004A00001280CD1FFE76D4844F2000101F043FF41
:1004B0006B480121C171022001F02CFDFFE780BDD6
:1004C00080B540F2001001F02FFD01282ED1FFE78A
:1004D000E248807A002818D0FFE70920C00640F2E1
:1004E000001101F034FF002807D1FFE70920C00602
:1004F00041F2000101F013FF06E00920C00641F2BD
:10050000000101F018FFFFE7FFE7544844F2000143
:1005100001F011FF52480121C17140F2004001F089
:10052000F9FC40F2001001F0F5FCFFE780BDC04689
:10053000220100201401002080B58AB0B5480021B6
:10054000017045480222012308900791194606923E
:10055000059301F015FF08980799079A059B01F08C
:1005600060FF0898059901F0DAFE08980599069A47
:10057000069B01F005FF08980799079A069B01F072
:1005800050FF0898069901F0CAFE344844F2000171
:100590000490059A03911146079A039B01F0F0FE1F
:1005A00004980799079A039B01F03BFF049803996D
:1005B00001F0C1FE2A480321C1712A480799059A12
:1005C000069B01F0DDFE0920C00640F200110290FA
:1005D000079A01911146059A019B01F0D1FE40F264
:1005E00000400299009008460799059A009B01F087
:1005F000C7FE0598059902F0F1FE06980799069A3C
:1006000001F010FC069801F085FC0821079802F023
:10061000E5FE01980799069A01F004FC019801F0A3
:1006200079FC0A21079802F0D9FE00980799069AEA
:1006300001F0F8FB009801F06DFC0720069902F02C
:1006400003FB2B20069902F0FFFA2F20069902F0F7
:10065000FBFA0AB080BDC0460014004800080048FC
:10066000140100200004004880B582B001A80021D8
:100670000170FFE701A8007804281BD8FFE701A854
:1006800000780C2141431048405C1149F522895CF7
:10069000884209D1FFE701A800780C2141430A48AC
:1006A0004018406880470DE0FFE70198401C01A911
:1006B0000870DFE7044801788268044802F05CF8BB
:1006C0000090FFE702B080BDB4380008CF390008C1
:1006D0000800002080B584B0E948007C022822DBB5
:1006E000FFE7234802F048F803A900220A700290AD
:1006F000FFE703A80078062810DCFFE703A80078CE
:10070000DF4908181D49415C1D4802F035F8019089
:10071000FFE70398401C03A90870EAE7154802F0B8
:100720002BF80090FFE703A800210170FFE703A862
:100730000078032819D8FFE703A80078C0000E4905
:10074000085CCF490D4A895C884208D1FFE703A8BD
:100750000078C000084908184068804705E0FFE7B6
:100760000398401C03A90870E1E704B080BDC046AF
:100770007A3B0008EC39000868390008581000007E
:100780008B3B000880B582B0BD48007C012805DBAA
:10079000FFE7094801F0F0FF0090FFE701A80321FF
:1007A000017010214170012181700021817000F0E1
:1007B00061FF02B080BDC046483B000880B582B0F2
:1007C000AF48007C012805DBFFE7114801F0D4FFAA
:1007D0000190FFE70F480078002801D0FFE714E000
:1007E000A7483349405C002804D1FFE709480121AC
:1007F00001700AE0A2482E49405C012804D1FFE7BD
:10080000044802210170FFE7FFE702B080BDC04647
:10081000693B00082001002080B582B09848007C28
:10082000012805DBFFE70C4801F0A6FF0190FFE778
:1008300093481F49405C012808DBFFE790481C49AA
:10084000405C64214143E6488180FFE7E4480121A0
:10085000C17202B080BDC046283B000822010020C2
:1008600080B582B08648007C012805DBFFE70F4891
:1008700001F082FF0190FFE7D9480021C172804852
:100880000B49405CFF2804D1FFE7D5480121C17125
:100890000AE07B480649405CFE2804D1FFE7D048C7
:1008A0000021C171FFE7FFE702B080BD393B0008BE
:1008B0005910000080B582B0734802F0F9FE09209B
:1008C000C0060021012301900091009A01F058FD1B
:1008D000022301980099009A01F052FDC048009946
:1008E000817241F200030198009A01F049FD40F63F
:1008F000000301980099009A01F042FD02B080BD0A
:1009000080B58AB00920C006022100220123099087
:1009100008910792069301F033FD09980799069A0A
:10092000069B01F07EFD09980899069A089B01F044
:1009300027FD09980799069A089B01F072FD524815
:10094000059002F0C0FE0521059802F0DDFE41F29F
:1009500000000999049008460699079A049B01F043
:100960000FFD09980799069A049B01F05AFD40F281
:100970000011099801F0EBFC002807D1FFE70920DE
:10098000C00641F2000101F0CAFC06E00920C006E1
:1009900041F2000101F0CFFCFFE70920C006012170
:1009A000002240F60003039002910192009301F0AF
:1009B000E7FC03980199029A009B01F032FD40F296
:1009C0000041039801F0C3FC002807D1FFE709208C
:1009D000C00640F6000101F0A2FC06E00920C006B6
:1009E00040F6000101F0A7FCFFE77D48012181727C
:1009F0000AB080BD80B586B0FC4800210174417406
:100A00000181C18081800122428141800180417544
:100A1000C175817501751D200591049202F014F9CC
:100A2000184802F09DFC0920C0060821039002919D
:100A3000049A01F00BFC02220398029901F006FCD3
:100A40001148019002F0E6FD0198059902F008FFB7
:100A50000198059902F0D6FE0198059902F0A4FECE
:100A6000E1204102019802F049FD0421019802F0C1
:100A7000B5FE0198029902F0DFFE06B080BDC046C7
:100A80002E01002013070000004C004080B586B006
:100A9000D4480021017341730181C180818041806C
:100AA000018001743D20059102F0CEF82D4802F03E
:100AB00057FC41F6000002F041FC0920C006082165
:100AC000042204900391029201F0C0FB0498039960
:100AD000039A01F0BBFB022004990190084601999A
:100AE000059A029B01F04CFC0120049900900846F5
:100AF0000599009A029B01F094FC04980199009AD0
:100B0000039B01F03DFC04980599009A039B01F0BA
:100B100088FC01F013FD059801F0FEFD059801F039
:100B2000B5FD059801F08EFD42F2805001F0C8FC41
:100B3000029801F09BFD039801F0C0FD00980007AA
:100B40000599059A01F06EF90098400501F0CCFD79
:100B5000052001F02DFD01F0FFFC01F0BFFD06B006
:100B600080BDC0461207000080B586B0CA48042187
:100B70008171002101800122C271427205920491AB
:100B8000FFF798FE174848F200010390059A02917A
:100B90001146049A029B01F0F3FB03980499049A0E
:100BA000029B01F03EFC0398029901F0C4FB09206E
:100BB000C00640F200210190059A00911146049A66
:100BC000009B01F0DDFB01980499049A009B01F061
:100BD00028FC0198009901F0AEFB06B080BDC0462C
:100BE000220100200008004880B58AB04348007800
:100BF000002801D1FFE77FE04048007801280990F4
:100C000008D0FFE7099802281FD0FFE709980328BA
:100C100036D058E03A480121089001F08CFB0221BF
:100C2000089801F07CFB35480021417003210170D8
:100C30003448007A012807DBFFE73248016834486E
:100C400001F09AFD0790FFE756E02D48012106903C
:100C500001F065FB0221069801F06DFB2748002199
:100C60004170032101702748007A012807DBFFE764
:100C700024480168254801F07FFD0590FFE73BE02F
:100C80001E484178491C4170407814281ADBFFE760
:100C90001B480121049001F04EFB0221049801F051
:100CA0004AFB16480178491C0170ED48007A01287A
:100CB00007DBFFE7EA480168134801F05DFD039098
:100CC000FFE7FFE718E0E648007A012807DBFFE7C7
:100CD000E34801680F4801F04FFD0290FFE7084824
:100CE0000121019001F01BFB0221019801F017FB8B
:100CF000024800210170FFE70AB080BD20010020FA
:100D00000014004814010020153A0008EE390008CC
:100D1000023A0008263A000880B582B0304801F057
:100D20005BFC002817D0FFE701F0F0FB59498A88E7
:100D30008A1850748888401C8880888841F2000195
:100D4000884204DBFFE7534800218180FFE75148D8
:100D50000021C173FFE7244801F03EFC002827D0A2
:100D6000FFE74C4801884088814219D0FFE7494895
:100D70000188E44A51185822895C0190084601F024
:100D8000CDFB01980188491C0180018841F20002D5
:100D9000914204DBFFE73F4800210180FFE706E0C6
:100DA000072001F0F1FBD74800210175FFE7FFE7BD
:100DB0000F4801F011FC01280FD1FFE70D4801F0A9
:100DC000D1FB0120000701F023F8C348017A491C38
:100DD0000172A54801F0D8FBFFE702B080BDC04614
:100DE000050005078C110020070007072E010020D1
:100DF000160214071407000080B582B0002001908D
:100E0000FFE7019803280AD8FFE701980E494158E7
:100E10000B4A1150FFE70198001D0190F1E70848C7
:100E20000068022805D0FFE700F0EEFF00F098FC14
:100E300004E0044801F0A0FC0090FFE702B080BD90
:100E400010010020753A000800F8010880B5F84844
:100E5000007C002814D1FFE79F48807A002801D148
:100E6000FFE716E0D548407D002801D0FFE710E0FD
:100E7000D24802214175EE48017C491C0174FFE70C
:100E8000EB488088CD4948800448072102F03CFCAB
:100E9000FFE780BD8C11002022010020004C0040A3
:100EA00080B58AB08C4880790428099000D9D1E0B7
:100EB0000998810001A289188F46C04600F008B841
:100EC00000F013B800F03AB800F063B800F0A1B831
:100ED000FFF76AF9012807D1FFE77F488179491CAC
:100EE000817100210180FFE7B8E0FFF75DF900287C
:100EF00004D1FFE7784800218171AFE0764801888E
:100F0000491C01800088642817DBFFE7724881795B
:100F1000491C817100210180407A01280CDBFFE728
:100F20004F4801686C4880886422B0FBF2F2544854
:100F300001F022FC0890FFE7FFE78FE0FFF734F9AC
:100F4000002804D1FFE764480021817186E06248EF
:100F50000188491C018001888088814218D1FFE7FF
:100F6000FFF7A8FC414848F2000101F0D8F95A48BF
:100F7000407A012807DBFFE7394801683F4801F064
:100F8000FBFB0790FFE754488179491C8171FFE71B
:100F900064E0022000F0BEFF40F2001000F0BAFF53
:100FA00040F20040069000F0B5FF4B48002101726E
:100FB0002D4A05901046049101F0FAFA0122069894
:100FC000049901F081FE294848F2000101F0B3F9CB
:100FD0000598417A012915DBFFE72148016824487B
:100FE00001F0CAFB3C49097A0129039005DBFFE7C0
:100FF000204801F0C1FB0290FFE71F4801F0BCFB55
:101000000190FFE734488179491C817100210180FA
:1010100024E031480188491C01800088322818DB0F
:10102000FFE72D48407A012807DBFFE70C480168FD
:101030000C4801F0A1FB0090FFE7FFF761FC264898
:101040000021817140F2E832428064228280C172C4
:10105000FFE703E0FA4800218171FFE70AB080BD95
:10106000140100209D3A0008160200000008004804
:10107000F23A0008EA3A0008CC3A00088D3A000833
:10108000B13A000880B584B01248F93002A900F0E6
:101090006DFE03A908700878002805D0FFE70F4807
:1010A00001F06AFB019013E00A48F721405C4628F2
:1010B00004D1FFE7E2480121C17209E00548F721A8
:1010C000405C4F2804D1FFE70298DD49C871FFE773
:1010D00004B080BD080000202201002088390008EB
:1010E000E4484189C1804189491C4181408941F2DC
:1010F0000001884204DBFFE7DE4800214181FFE771
:101100007047C0462E01002080B582B001A80121A1
:101110000170FFE701A80078042812D8FFE701A8B2
:1011200000780C21414308484218415C9268074806
:1011300001F022FB0090FFE70198401C01A9087014
:10114000E8E702B080BDC046B4380008CF390008D7
:1011500080B584B0C748007C022829DBFFE7184827
:1011600001F00AFB0390FFE7C248018980888142B1
:101170001AD0FFE7BF48018941185822895C2E4ADE
:101180000290104601F0F8FA02990A89521C0A816D
:101190000A8941F200039A42019004DBFFE7B54857
:1011A00000210181FFE7DFE70A2000F035FA03E0C4
:1011B000B04881880181FFE704B080BD2E01002086
:1011C000843B000880B584B0EA48007B022828DB15
:1011D000FFE7184801F0D0FA0390FFE7E5480189DE
:1011E0008088814219D0FFE7E24801894118497C93
:1011F000114A0290104601F0BFFA02990A89521C66
:101200000A810A8941F200039A42019004DBFFE758
:10121000D84800210181FFE7E0E70A2000F0FCF94F
:1012200003E0FB4881880181FFE704B080BDC04630
:101230008C110020D73B00088B3B000810B586B00E
:10124000F448407C0A2801D1FFE7F1E0F148407CF6
:10125000052818D1FFE700F0E5FAEE48C1884118EB
:101260005822895C827C51188174C189491EC181D0
:10127000C089002804D1FFE7E64806214174FFE752
:10128000FFF72EFFD4E0E348407C06281BD1FFE7A0
:1012900000F0C8FADF48C18841185822895C807C78
:1012A000814205D1FFE7664840F2E831418004E021
:1012B000624801F061FA0490FFE7D64800214174CA
:1012C000FFF70EFFB4E0D348407C03281ED1FFE7B0
:1012D000D048C18841185822895C05AA1170059927
:1012E000C389C318574C19551178827C51188174E1
:1012F000C189491CC181C089062804DBFFE7C548B4
:1013000004214174FFE7FFF7EBFE91E0C148407C08
:1013100004281BD1FFE7BF48C18841185822895CC7
:10132000807C814207D1FFE7FFF7D4F9444840F2BF
:10133000E831418004E0414801F01EFA0390FFE7E4
:10134000B44800214174FFF7CBFE71E0B148407C06
:10135000002817D1FFE7AF48C18840185821405CEA
:10136000AA2807D1FFE7FC48C1888181417C491C3C
:10137000417404E0304801F0FFF90290FFE7FFF705
:10138000AFFE55E0F448407C01281AD1FFE7F2484F
:10139000C18840185821405C552807D1FFE7EE4826
:1013A000417C491C4174FF21817407E0EA48002117
:1013B0004174204801F0E0F90190FFE7FFF790FE4B
:1013C00035E0E548407C022830D1FFE7E248C1889B
:1013D00040185821405CD0280BD1FFE7DE4803219C
:1013E0004174817CD03181740021C181FFF778FE86
:1013F0001BE0D948007D002816D1FFE7D64801211F
:10140000017505214174C18841185822895C827C8C
:10141000511881740621C1818089F549088000F046
:1014200001FAFFF75DFEFFE7FFE7FFE7FFE7FFE7F2
:1014300006B010BD093B0008F63A00081139000853
:10144000220100205810000080B5FB4801898088E7
:10145000814203D0FFE7FFF77BFEFFE7FFE7F64897
:10146000C1888088814203D0FFE7FFF7E7FEF6E7F7
:1014700080BDC0462E01002080B584B0EF48407B7F
:101480000A2801D1FFE773E0EC48407B052813D11F
:10149000FFE7EA48C1884118497C827B5118817373
:1014A0004189491E41814089002804D1FFE7E34872
:1014B00006214173FFE75BE0E048407B062811D13D
:1014C000FFE7DE48C1884118497C807B814205D016
:1014D000FFE72B4801F050F90290FFE7D7480021C1
:1014E000417345E0D548407B002812D1FFE7D3483F
:1014F000C1884018407CAA2805D1FFE7CF48417B2E
:10150000491C417304E01D4801F036F90190FFE7E2
:101510002EE0CA48407B012817D1FFE7C748C188A1
:101520004018407C552807D1FFE7C448417B491C3F
:101530004173FF21817307E0C048002141730E48C9
:1015400001F01AF90090FFE711E0BC48407B022847
:101550000CD1FFE7B948C1884118497C827B5118FA
:1015600081730521417306214181FFE7FFE7FFE712
:1015700004B080BD8C110020A33B0008903B000804
:10158000B63B000880B5AD4801898088814203D010
:10159000FFE7FFF717FEFFE7A7484088A7498988BC
:1015A000884203D0FFE7FFF751FC18E0A348007C16
:1015B000012813DBFFE7A148407B00280DD1FFE79E
:1015C000F54801884088814206D1FFE7F2480021B2
:1015D00041759A480174FFE7FFE7FFE7FFE7974887
:1015E000C1888088814211D0FFE7FFF745FF93480B
:1015F000C188491CC180C08841F20001884204DBD7
:10160000FFE78E480021C180FFE7FFE780BDC046AD
:101610008C1100202E01002080B584B0014603AA61
:1016200010707248407802AA10700298401C107026
:101630001078F028019104DBFFE702A80021017077
:10164000FFE702A8007869490978884209D0FFE7D6
:10165000039802A90978654A511888700298507059
:10166000FFE70348072102F04FF804B080BDC046F1
:101670000038014080B586B001460590AA2002914D
:1016800000F03EF8552000F03BF8D02000F038F88C
:1016900003A8CF21017004A801210170FFE704A86D
:1016A000007805990978884213DCFFE7059804A9BA
:1016B0000A78805C019100F023F8059801990A7876
:1016C000805C039A101803AA10700498401C0870DC
:1016D000E5E7FFE704A80078062808DCFFE700201C
:1016E00000F00EF80498401C04A90870F2E703A863
:1016F000007800F005F800F02FF906B080BD00007A
:1017000080B584B0014603AA1070E848C07D02AAE3
:1017100010700298401C107010784028019104DB72
:10172000FFE702A800210170FFE702A80078DF4967
:10173000897D884208D0FFE70398DC49CA7D8A1872
:1017400010760298C87504E0044801F015F800907E
:10175000FFE704B080BDC0462E0100201C3B0008FE
:1017600080B500F0F9FB00F00BFC00F069FC00F024
:1017700089FC80BD80B584B0EC48F93002A900F046
:10178000F5FA03A908700878002805D0FFE71A4881
:1017900000F0F2FF019027E0E448F721405C4D287B
:1017A00004D1FFE70298134908721DE0DF48F721D2
:1017B000405C482804D1FFE70298BC49087413E054
:1017C000DA48F721405C4C2804D1FFE70298B84979
:1017D000087309E0D548F721405C502804D1FFE7A1
:1017E00002986C494872FFE704B080BD08000020F1
:1017F0008C110020140100208839000880B584B0C5
:101800000648012100F0B8FF6249C979044A0290F4
:10181000104600F0B1FF019004B080BDE639000829
:10182000D839000880B5A1484089A14948800720DF
:1018300000F0BEFE80BDC0462E0100208C110020AD
:1018400080B584B0014602900298401E000E002828
:10185000019103D0FFE70120039013E00298401E9E
:101860000A4908600020C14303220090084611463F
:1018700000F034FA06480099016006480722026029
:101880000391FFE7039804B080BDC04614E000E078
:1018900018E000E010E000E002480178491C017007
:1018A0007047C0469E21002010B582B01D480168D7
:1018B000012211430160FFE71A4800680221084233
:1018C00001D1FFE7F8E7184801680322914301605E
:1018D00014490B68154C23400B600168144B1940E8
:1018E00001600168134B19400160134801680F2320
:1018F000994301601148016840F203139943016064
:1019000001689207914301600D4800210160019137
:1019100001F0DAFD0120C006019901F0ADF902B035
:1019200010BDC0460010024004100240FFFFF2FE4E
:101930000C00FF08FFFF007F2C1002403010024017
:101940000810024080B582B001A8012101704170E9
:10195000FFF790FE02B080BD80B50E48807A002867
:1019600001D1FFE714E05148817DC07D814201D162
:10197000FFE70DE04D48407D002801D0FFE707E07C
:101980004A48012141754848072101F0BDFEFFE7A3
:1019900080BDC046220100202E01002080B582B00B
:1019A0004148614901F0C6FE002819D0FFE73E48D2
:1019B00001F014FE3D498A888A185823D05488883B
:1019C000401C8880888841F20001884204DBFFE7E0
:1019D000364800218180FFE734480021C174FFE7C9
:1019E0003148534901F0A6FE00285BD0FFE72F489D
:1019F000407D022825D1FFE72C480188408881429C
:101A000019D0FFE729480188294A5118497C264AFC
:101A10000190104601F0ECFD01980188491C0180FD
:101A2000018841F20002914204DBFFE71F480021D8
:101A30000180FFE704E01C48072101F04FFEFFE7AB
:101A40002FE01A48407D012825D1FFE71748817D06
:101A5000C07D814216D0FFE71448817D4118097E80
:101A6000114A0090104601F0C3FD0098817D491C89
:101A70008175817D402904DBFFE70C4800218175D9
:101A8000FFE707E00848072101F028FE074800218A
:101A90004175FFE704E00448072101F01FFEFFE75E
:101AA000FFE7FFE702B080BD004C00402E010020A0
:101AB0008C11002080B557481B4901F03BFE0028DF
:101AC0000AD0FFE7534801F089FD4F49F3228854BB
:101AD000F22001220A54FFE74E48154901F02AFE80
:101AE000002820D0FFE7484801784078814214D090
:101AF000FFE745480178491C01700078F02804DBB5
:101B0000FFE7414800210170FFE73F480178401896
:101B10008178404801F06CFD04E03E48072101F067
:101B2000DDFDFFE7FFE780BD050005070800002099
:101B30000700070780B58AB0334800214170017063
:101B4000F22281541B20032209911146089201F0D0
:101B50007BF82E4801F004FC2D4807214022079015
:101B60000691059200F072FB8020079904900846C8
:101B70000699049A00F06AFB02200121079A03905B
:101B80001046039B02911946029A059B00F0F8FB50
:101B900007980999089A059B00F043FC0798039958
:101BA000029A049B00F0ECFB07980999089A049BA1
:101BB00000F037FC1748019001F02CFD01980999BD
:101BC00001F04EFE0198099901F01CFE0198099957
:101BD00001F0EAFDE1204102019801F08FFC0421AF
:101BE000019801F0FBFD0821019801F025FE019804
:101BF00001F069FD0521019801F086FD0198069923
:101C000001F082FD0AB080BD080000200E06000031
:101C1000000400480038014082B0014601AA10705B
:101C2000107840B2002800910EDBFFE701A8007891
:101C300040B21F2102460A4001219140C008034AD8
:101C40001040034A8150FFE702B07047FCFFFF1FBE
:101C500000E100E070B584B00A46034603AC207092
:101C60000291207840B200280193009218DBFFE730
:101C700003A8017849B20322D34319403A4C0959C9
:101C8000007840B205461540EA00FF259540A9437B
:101C9000029DAD01EDB295402943184001511BE072
:101CA00003A801780F22114008390323DC432140A7
:101CB0002C4D4959007840B206461E40F300FF26DD
:101CC0009E40B143029EB601F6B29E4031431040A1
:101CD000083820404151FFE704B070BD70B584B0B2
:101CE0000A46034603AC20700291207840B20028D7
:101CF0000193009218DBFFE703A8017849B20322A1
:101D0000D3431940184C0959007840B20546154094
:101D1000EA00FF259540A943029DAD01EDB2954033
:101D20002943184001511BE003A801780F221140FC
:101D300008390323DC4321400A4D4959007840B259
:101D400006461E40F300FF269E40B143029EB601A8
:101D5000F6B29E4031431040083820404151FFE721
:101D600004B070BD1CED00E000E400E089B00A465C
:101D70000346079006910798007830280492039351
:101D800005DBFFE7079800783A2804DBFFE708A89F
:101D9000FF21017033E0069800210180FFE70798DA
:101DA00000780021302802910DDBFFE707980078CA
:101DB000012100223A280192009101DB0198009054
:101DC00000980290FFE70298C007002813D0FFE7B1
:101DD000069801880A224A43028007980078303822
:101DE00005A908700698028809785118018007989B
:101DF000401C0790D3E708A800210170FFE708A85E
:101E0000007809B070470000B048022101607047B7
:101E100082B00146019001984E4A1060009102B0D4
:101E20007047C04670B588B013460C46054607900B
:101E300006A8017005A90A700799324A16688E43F0
:101E400016600799304A16688E43166007992F4A24
:101E500016688E43166007992D4A16688E431660E1
:101E600000780028049403930295019004D0FFE7C2
:101E70000198012806D00BE0079822490A6802431E
:101E80000A6006E0079820490A6802430A6000E0F9
:101E9000FFE705A80078032800902FD8009881005C
:101EA00001A289188F46C04600F006B800F00FB8AE
:101EB00000F018B800F021B8079814490A680243E6
:101EC0000A60079812490A6882430A6017E0079877
:101ED0000E490A6882430A6007980D490A6802435E
:101EE0000A600CE0079809490A6802430A600798EB
:101EF00007490A6802430A6001E000E0FFE708B012
:101F000070BDC046000401400404014008040140C3
:101F10000C04014082B00146019001980D4A106006
:101F2000009102B07047C04683B001460190094855
:101F30000068019A1042009104D0FFE702A8012135
:101F4000017003E002A800210170FFE702A80078F9
:101F500003B070471404014080B582B000F034F93A
:101F60003C20019000F02CF8574800F039F8019916
:101F70000090084600F024F800F02CF802B080BD74
:101F800080B582B050480190FFE701980A49884225
:101F900010D8FFE701980068401C002805D0FFE733
:101FA000064800F0E9FB009004E0FFE701981030DC
:101FB0000190EAE702B080BDFFFF0108363A000851
:101FC00082B00146019001987E4A1060009102B0F3
:101FD0007047C0469C4801688022114301607047E9
:101FE00080B586B00146059001200005039100F000
:101FF00073F804A90870087800281BD1FFE79248FD
:10200000016802221143016005990C4B19600168B7
:1020100040231943016001210905029008460192FD
:1020200000F05AF804A9087002980168019A9143D7
:102030000160FFE704A8007806B080BD14200240CC
:1020400080B584B000F0C0F800200390FFE703984B
:10205000032813D8FFE703981B4941181B4A10585F
:1020600002900846029900F0C3F80399091D0391F4
:102070003C2101900846FFF7A3FFE8E7FFF7AAFF1E
:1020800004B080BD80B584B000200390FFE70398C2
:10209000032812D8FFE703980B4941580B4A105800
:1020A000814205D0FFE70A4800F066FB029004E099
:1020B000FFE70398001D0390E9E7064800F05CFB8A
:1020C000019004B080BDC04600F801081001002056
:1020D0004B3A0008623A000880B586B00146059088
:1020E00004A8012202700391FFE700F02BF804A975
:1020F00008700598401E0590FFE704A800780021AD
:10210000012802910BD1FFE70598012100280190D9
:10211000009101D10198009000980290FFE7029889
:10212000C0070028E1D1FFE704A80078012804D106
:10213000FFE704A805210170FFE704A8007806B0B6
:1021400080BD000081B06846002101701D48006814
:102150000121084204D0FFE76846012101702CE00C
:10216000184800681021084204D0FFE7684604219F
:10217000017021E0134800680421084204D0FFE701
:1021800068460221017016E00E48006808210842E6
:1021900004D0FFE76846032101700BE0094800689E
:1021A00048F20001084204D0FFE7684607210170A9
:1021B000FFE7FFE7FFE7FFE7FFE76846007801B0CA
:1021C0007047C0460C2002401F480068802108422A
:1021D00006D0FFE703480449016004490160FFE7B6
:1021E0007047C0460420024023016745AB89EFCD0C
:1021F00080B588B00A460346079006910120000585
:1022000004920393FFF768FF05A908700878002877
:1022100016D1FFE70C4801680122114301600699BD
:10222000079B19601105029008460192FFF754FFC1
:1022300005A9087002980168019A91430160FFE7BF
:1022400005A8007808B080BD10200240B0B589B064
:1022500013460C4605460890079106920898006AB6
:1022600004900898406A039005A800210180029319
:1022700001940095FFE705A8008807281ED8FFE70E
:1022800005A80088012181400698014210D0FFE78F
:1022900005A8018889000F228A400499914304917E
:1022A0000799008880008140049808430490FFE764
:1022B000FFE70598401C05A90880DCE705A8082170
:1022C0000180FFE705A800880F2820D8FFE705A8B0
:1022D0000088012181400698014212D0FFE705A83D
:1022E0000188890020390F228A4003999143039184
:1022F00007990088800020388140039808430390A4
:10230000FFE7FFE70598401C05A90880DAE7049875
:102310000899086203980899486209B0B0BD84B072
:102320000A4603460390029102980399886201923B
:10233000009304B0704784B00A46034603900291AC
:102340000298039988610192009304B0704785B0A8
:102350000A460346039002910398006902990842D5
:102360000192009304D0FFE704A80121017003E06B
:1023700004A800210170FFE704A8007805B07047A9
:10238000F0B58BB01C4615460E4607460A900991DB
:10239000089207930A98006805900A98C06804900C
:1023A00006A8002101800394029501960097FFE79B
:1023B00006A800880F282CD8FFE706A8008801216E
:1023C0008140079801421ED0FFE706A80188490016
:1023D000032213468B400599994305910999038877
:1023E0005B009940059B0B430593018849008A4097
:1023F0000499914304910899008840008140049811
:1024000008430490FFE7FFE70698401C06A90880F0
:10241000CEE705980A99086004980A99C8600BB03D
:10242000F0BDF0B58AB01C4615460E460746099029
:1024300008A8017007920693007801280395029678
:102440000194009706D1FFE7069809994A6802436C
:102450004A6005E0069809994A6882434A60FFE7A6
:1024600009988068049005A800210180FFE705A86D
:1024700000880F281ED8FFE705A8008801218140A9
:102480000698014210D0FFE705A801884900032201
:102490008A40049991430491079900884000814043
:1024A000049808430490FFE7FFE70598401C05A93E
:1024B0000880DCE70498099988600AB0F0BD000044
:1024C00080B584B00146039000200290019009205D
:1024D000009100F041FC029002986421B0FBF1F001
:1024E0000002039AC823B2FBF3F3C018B2FBF1F168
:1024F000B0FBF1F0019001980249084002490860E0
:1025000004B080BDFFFF0F000C800040024800684F
:10251000084908407047C0462480004082B0014608
:1025200001900198034A1040034A1060009102B0E4
:102530007047C046FF0100002880004080B582B08F
:102540000448019000F034FF019800F01DFF02B034
:1025500080BDC04612040000794801680122114381
:102560000160704782B0014601AA108010881F22C6
:102570001040012282400348036813430360009126
:1025800002B070472080004010B582B0014601AA19
:10259000108010881F220346134001229A408009B0
:1025A000674BC4589443C450009102B010BDC0465C
:1025B00010B582B0014601AA108010881F22034680
:1025C000134001229A4080095D4BC4581443C45003
:1025D000009102B010BDC04670B585B001460390B1
:1025E0000020029001900398154A10408009544A37
:1025F0008058039B1F24234001252E469E403040D7
:1026000002900398800D8058039A23041A40120CFC
:1026100095402840019001980028009108D0FFE7DC
:102620000298002804D0FFE704A80121017003E00C
:1026300004A800210170FFE704A8007805B070BD70
:10264000C0FF000082B0014601903D4802680123AE
:102650009A430260026840F200639A430260019A62
:10266000036813430360009102B0704782B00146D3
:1026700001903348026804239A430260019A036878
:1026800013430360009102B07047C04682B0014618
:1026900001902B48026801239A43026006480268B1
:1026A00043F200039A430260019A036813430360F4
:1026B000009102B07047C0460480004082B00146DD
:1026C00001901F48026808239A430260019A036838
:1026D00013430360009102B07047C0461848016878
:1026E000022211430160704782B0014601901448F4
:1026F000026801239A4302600648026803231B050F
:102700009A430260019A1A400368134303600091E0
:1027100002B070470880004082B00146019008482E
:10272000026801239A4302600268064B1A40026065
:10273000019A036813430360009102B07047C046DA
:1027400000800040FFEFFFEF85B00A46034604908B
:1027500003910120029001920093FFE70398411E2C
:102760000391002805D0FFE704980299484302909E
:10277000F4E7029805B0704783B080B599B01D9317
:102780001C921B9101461890002010901BA81790D6
:102790000F91FFE718980078002800D1D7E118982A
:1027A000007825280AD0FFE71898411C1891007876
:1027B000FEF732FF1098401C1090EBE71898401C71
:1027C000189011A800210170FFE7189800780021E7
:1027D00030280E910DDBFFE71898007801210022C8
:1027E0003A280D920C9101DB0D980C900C980E90EC
:1027F000FFE70E98C00700280FD0FFE711980A21C5
:10280000414311A8017018990978119A511830396B
:1028100001701898401C1890D7E718980078633812
:1028200015280B9000D989E10B98810001A2891825
:102830008F46C04600F078B900F08BB800F07EB942
:1028400000F07CB900F07AB900F078B900F076B900
:1028500000F074B900F072B900F070B900F06EB910
:1028600000F06CB900F06AB900F068B900F066B920
:1028700000F064B900F042B900F060B900F006B8A9
:1028800000F05CB900F05AB900F0C6B81798011D05
:102890001791006816901698159014A800210170E1
:1028A000FFE7159800280AD0FFE71498401C14A9E8
:1028B000087015980A21B0FBF1F01590F1E711A806
:1028C000007814A90978884204DDFFE7119814A95B
:1028D000087009E014A80078002804D1FFE714A8C4
:1028E00001210170FFE7FFE714A80078109908188C
:1028F000109016981590FFE714A80078002827D0AC
:10290000FFE7159814A90A78521E0A230A90184660
:10291000099111460893FFF717FF0A99B1FBF0F0F0
:1029200013A9087009980178491E0898FFF70CFF51
:102930001599B1FBF0F25043081A159013983030F6
:10294000C0B2FEF769FE1498401E09990870D3E7DB
:10295000F9E01798011D17910068169016981590C8
:1029600014A800210170FFE7159800280AD0FFE79E
:102970001498401C14A9087015980A2190FBF1F0D6
:102980001590F1E711A8007814A90978884204DDB0
:10299000FFE7119814A9087009E014A8007800282E
:1029A00004D1FFE714A801210170FFE7FFE714A895
:1029B000007810990818109016981590FFE714A841
:1029C0000078002827D0FFE7159814A90A78521E2E
:1029D0000A2307901846069111460593FFF7B4FEA7
:1029E0000799B1FBF0F013A9087006980178491E09
:1029F0000598FFF7A9FE1599B1FBF0F25043081AAC
:102A0000159013983030C0B2FEF706FE1498401EA1
:102A100006990870D3E796E01798011D1791006892
:102A200016901698159014A800210170FFE71598CC
:102A300000280BD0FFE71498401C14A908701598C3
:102A4000C117090F401800111590F0E711A8007880
:102A500014A90978884204DDFFE7119814A90870C9
:102A600009E014A80078002804D1FFE714A8012188
:102A70000170FFE7FFE714A800781099081810907C
:102A800016981590FFE714A80078002835D0FFE7C6
:102A9000159814A90A78521E102304901846039121
:102AA00011460293FFF750FE0499B1FBF0F013A911
:102AB000087003980278521E029801911146FFF7A0
:102AC00043FE1599B1FBF0F25043081A1590019896
:102AD0000178092906DCFFE713983030C0B2FEF711
:102AE0009BFD05E013983730C0B2FEF795FDFFE778
:102AF0001498401E14A90870C5E724E01798011D1A
:102B0000179100681290FFE71298007800280AD009
:102B1000FFE71298411C12910078FEF77DFD109896
:102B2000401C1090F0E70EE01798011D17910078F7
:102B3000FEF772FD1098401C109004E01898007881
:102B4000FEF76AFDFFE71898401C189022E61098DF
:102B500019B080BC02BC03B08E46704780B586B009
:102B600000200590049000F09FF840F2006000F013
:102B7000F7FB2F4800F0F4FB2E4800F0F1FB2E4845
:102B800000F0EEFB2D480499017000F0A1FCFEF767
:102B9000D1FFFEF731F9FDF7CFFCFDF7E5FFFDF7BB
:102BA00029FFFDF773FF2648049901600171017246
:102BB0002448FFF7E1FD0390FFE7214800791F4912
:102BC000097888422ED0FFE71D480179491C017120
:102BD0000168491C01600290FDF79EFB0298417953
:102BE000491C417141790A291BD1FFE71448002192
:102BF00041710190FEF754F9FDF73AFBFDF758FBE0
:102C0000FDF7F2FF01988179491C8171817964296E
:102C100006D1FFE70A4800218171FDF767FBFFE756
:102C2000FFE7FFE7FEF710FCFEF7ACFCC5E7C04688
:102C30001105000012050000130500009E21002070
:102C400014010020C039000810B586B00A460346BA
:102C500005AC207004A801700178207840B203937D
:102C600002940192FEF7F6FF0298017848B2FEF74F
:102C7000D3FF06B010BD000010B584B00A4603466D
:102C80000390029103980299054C2140084305499D
:102C90000860BFF34F8F0192009304B010BDC0468F
:102CA00080FFFF1F08ED00E082B001460190274839
:102CB00002684CF200039A430260019A03681343CE
:102CC0000360009102B07047B0B586B013460C4661
:102CD0000546059004A8017003A802701B4801680E
:102CE0001B4A11400160059840F20041884202935E
:102CF000019400950CD1FFE703A80078002807D1C4
:102D0000FFE71248016840F2004211430160FFE70B
:102D100003A800780D490A6802430A600D4801685B
:102D200004221143016004A80078002802D1FFE7C3
:102D300030BF03E040BF20BF20BFFFE70548016868
:102D400004229143016006B0B0BDC046007000404F
:102D5000FCFBFFFF10ED00E096B0014615AA1070D5
:102D60000020149013901290119010900F900E90DC
:102D70000D900C900B900A90099008900790069087
:102D800005900490FB4800680C22104080081490C5
:102D9000149800280391029008D0FFE702980128B8
:102DA00007D0FFE70298022806D066E0F2481090AC
:102DB00066E0F248109063E0EE4801683F2292041A
:102DC0001140890C099100680121C9060840C00E14
:102DD00008900898800109994018099009980F28CF
:102DE00004D3FFE70998401C09900BE009980F28CD
:102DF00003D1FFE71020099003E00998801C099097
:102E0000FFE7FFE7DB480068032109040840000CE6
:102E10000790079800280ED1FFE7D94800680F21D6
:102E20000840401C06900698D349B1FBF0F0099980
:102E30004143109120E0079801280ED1FFE7D048C8
:102E400000680F210840401C06900698CB49B1FB52
:102E5000F0F00999414310910DE0C94800680F2135
:102E60000840401C06900698C649B1FBF0F009994D
:102E700041431091FFE7FFE702E0BF481090FFE7F2
:102E8000BC480168F0221140090905910599BE4A24
:102E9000515C04911099049AD1400F91016840F25D
:102EA00000721140090A05910599B84A515C0491D4
:102EB0000F99049AD1400E91006843F60001084032
:102EC000C00A05900598B249085C04900F980499CF
:102ED000C8400D9015A800780B28019000D91EE27B
:102EE0000198810001A289188F46C04600F016B8EB
:102EF00000F017B800F018B800F019B800F01AB8D0
:102F000000F0F1B800F00BBA00F009BA00F007BA0F
:102F100000F07CB900F023B900F0BCB91098119012
:102F2000FEE10F981190FBE10E981190F8E10D98D9
:102F30001190F5E19748006840F20011084088427E
:102F400003D0FFE7F9480C90CAE0F74800684CF25C
:102F500000010840800B1390F6480068800F129023
:102F600013980328009000D9B8E00098810001A2CE
:102F700089188F4600F006B800F02FB800F058B856
:102F800000F083B81298002804D1FFE70D9840089C
:102F90000C9021E01298012806D1FFE70D980A2134
:102FA000B0FBF1F00C9016E01298022806D1FFE772
:102FB0000F980321B0FBF1F00C900BE0129803285E
:102FC00006D1FFE70F980B21B0FBF1F00C9000E069
:102FD000FFE7FFE7FFE7FFE781E01298002804D151
:102FE000FFE70D9880080C9021E01298012806D187
:102FF000FFE70D980C21B0FBF1F00C9016E0129851
:10300000022806D1FFE70F980521B0FBF1F00C90E4
:103010000BE01298032806D1FFE70F980D21B0FBB3
:10302000F1F00C9000E0FFE7FFE7FFE7FFE756E075
:103030001298002806D1FFE70D980621B0FBF1F0A9
:103040000C9021E01298012806D1FFE70D980E217F
:10305000B0FBF1F00C9016E01298022806D1FFE7C1
:103060000F980721B0FBF1F00C900BE012980328A9
:1030700006D1FFE70F980F21B0FBF1F00C9000E0B4
:10308000FFE7FFE7FFE7FFE729E01298002804D1F8
:10309000FFE70D98C0080C901FE01298012804D19A
:1030A000FFE70D9800090C9016E01298022806D14F
:1030B000FFE70F980921B0FBF1F00C900BE012989C
:1030C000032806D1FFE70F981121B0FBF1F00C9017
:1030D00000E0FFE7FFE7FFE7FFE700E0FFE7FFE7CC
:1030E0000C9811901CE19D4800680321084203D10F
:1030F000FFE70D980B902FE09848006803210840E7
:10310000012803D1FFE710980B9024E09348006852
:1031100003210840022804D1FFE748F200000B9089
:1031200018E08E48006803210840032810D1FFE70B
:103130008A480068072189040840800C059005989A
:103140007D49085C049004987949C1400B9100E0E6
:10315000FFE7FFE7FFE7FFE70B981190E0E07F480C
:10316000006803210904084216D1FFE70E980B906E
:1031700049E0C046041002400024F40000127A0026
:103180002C100240006CDC02A0390008B0390008A5
:10319000B839000830100240704800680321090463
:1031A000084001210904884203D1FFE710980B90E1
:1031B00028E06A4800680321090408400121490405
:1031C000884204D1FFE748F200000B9019E0634801
:1031D0000068032109040840884210D1FFE75F48D6
:1031E0000068072189040840800C05900598524921
:1031F000085C049004984E49C1400B9100E0FFE741
:10320000FFE7FFE7FFE70B98119089E0534800685C
:1032100041F60001084203D1FFE70E980B9036E01B
:103220004E48006841F60001084040F6000188421F
:1032300003D1FFE710980B9028E04848006841F65A
:103240000001084041F20001884204D1FFE748F242
:1032500000000B9019E04148006841F60001084069
:10326000884210D1FFE73D480068072189040840E3
:10327000800C059005983049085C049004982C490E
:10328000C1400B9100E0FFE7FFE7FFE7FFE70B9886
:10329000119045E03148006840F20061084203D1D6
:1032A000FFE70E980A9037E02C48006840F2006172
:1032B000084040F20021884204D1FFE747F6005061
:1032C0000A9028E02548006840F20061084040F27A
:1032D0000041884204D1FFE748F200000A9019E05B
:1032E0001E48006840F200610840884210D1FFE7A4
:1032F0001A480068072189040840800C0590059849
:103300000D49085C049004980949C1400B9100E004
:10331000FFE7FFE7FFE7FFE70A98119000E0FFE70C
:10332000119816B07047C04604100240006CDC02D1
:103330000024F400301002409839000882B00146A1
:1033400001900648026841F600039A430260019A20
:10335000036813430360009102B0704730100240CD
:1033600010B582B0014601AA108010881F220346C2
:10337000134001229A408009174BC4581443C4508B
:10338000009102B010BDC04610B582B0014601AA3E
:10339000108010881F220346134001229A408009A2
:1033A0000D4BC4589443C450009102B010BDC046A8
:1033B00010B582B0014601AA108010881F22034672
:1033C000134001229A408009034BC4581443C4504F
:1033D000009102B010BDC0460010024070B587B029
:1033E0000A46034606AC207005A801700178032543
:1033F000294089000F268E40F143049121780478FA
:103400002C40A400A1400391007880080328029278
:103410000193009034D80098810001A289188F464A
:1034200000F006B800F00EB800F016B800F01EB8B4
:10343000049818490A6802400A6003980A6802431F
:103440000A601EE0049812490A6802400A60039864
:103450000A6802430A6014E004980C490A680240B2
:103460000A6003980A6802430A600AE00498064961
:103470000A6802400A6003980A6802430A6000E092
:10348000FFE707B070BDC0461400014010000140C6
:103490000C000140080001400A4801680160016811
:1034A00001600168016001680322914301600168C5
:1034B0000160FFE7034800680C21084201D0FFE7E4
:1034C000F8E770470410024080B5FFF7E5FF80BDC4
:1034D00080B50948006840F2E831B0FBF1F0FEF732
:1034E000AFF9002802D0FFE7FFE7FEE70020C04366
:1034F0000321FEF7F3FB80BD0000002080B58AB0F9
:103500000A4603460990089100200790069005900E
:10351000049009985E49884203920293019014D066
:10352000FFE75C480199814214D0FFE75A480199AE
:10353000814214D0FFE759480199814214D1FFE735
:103540000520FFF709FC07900FE00A20FFF704FCB5
:1035500007900AE00220FFF7FFFB079005E002203A
:10356000FFF7FAFB079000E0FFE70998006848F2D0
:103570000001084218D0FFE70798400008994A0860
:103580008018B0FBF1F004900498134908400690AD
:1035900004984008072108400590069805990843BB
:1035A00080B20999C86015E0079808994A08801800
:1035B000B0FBF1F004900498074908400690049885
:1035C0000F210840059006980599084380B2099993
:1035D000C860FFE70AB080BDF0FF000082B001467E
:1035E00001900198406A0A4A1040009102B0704769
:1035F00084B00A460346039002A80180008804496B
:103600000840039988620192009304B07047C04655
:10361000FF01000080B588B00146079007981C4A5A
:1036200090420691059017D0FFE71A48059981420C
:103630001AD0FFE71848059981421DD0FFE71748C7
:103640000599814220D1FFE718480490FFF7B0FEAA
:103650000498FFF799FE18E013480390FFF7A8FEBF
:103660000398FFF791FE10E00E480290FFF7A0FECE
:103670000298FFF789FE08E009480190FFF798FEDD
:103680000198FFF781FE00E0FFE708B080BDC0466B
:1036900000440040004C0040005000400038014011
:1036A0001404000013040000110400000E030000C5
:1036B00082B0014601900198026801239A4302609A
:1036C000009102B0704782B00146019001980268F3
:1036D00001231A430260009102B07047B0B584B074
:1036E0000A460346039002A8018000881F21044671
:1036F0000C400121A140039C800925588D43255091
:103700000192009304B0B0BDB0B584B00A46034640
:10371000039002A8018000881F2104460C4001216B
:10372000A140039C800925580D4325500192009328
:1037300004B0B0BD70B587B00A4603460590049149
:1037400000200390029005980499164C21408909A5
:10375000405804991F24214001252E468E403040B8
:10376000039005980499890D405804992404214038
:10377000090C8D4028400290029800280192009385
:1037800008D0FFE70398002804D0FFE706A801212E
:10379000017003E006A800210170FFE706A8007889
:1037A00007B070BDC0FF000010B584B00A460346E4
:1037B00003900291039801680124A14301600398DA
:1037C000016840F20064A1430160029803990C680B
:1037D00004430C600192009304B010BD10B584B096
:1037E0000A46034603900291039801680424A1430A
:1037F0000160029803990C6804430C6001920093E5
:1038000004B010BD10B584B00A460346039002917F
:10381000039801680124A14301600398416843F2C1
:103820000004A1434160029803994C6804434C6032
:103830000192009304B010BD10B584B00A4603464F
:1038400003900291039801680824A1430160029843
:1038500003990C6804430C600192009304B010BDFE
:1038600010B584B00A46034603900291039801689C
:103870000124A14301600398016841F20004A143BF
:103880000160029803990C6804430C600192009354
:1038900004B010BD02E008C8121F08C1002AFAD106
:1038A00070477047002001E001C1121F002AFBD1C0
:1038B00070470000480000000911000806390008A0
:1038C00044000000FD170008453900084D000000C5
:1038D00085100008F0380008540000004519000861
:1038E00053390008500000007517000823390008FC
:1038F0007077726F66663A4D20463B686F6C644F16
:103900006E3A4D204F007072696E7420636D64735F
:103910000072637620686F73742073756D20657212
:10392000720A004442472E484F53543A5020483BB5
:103930004750494F3A5020473B505752204D4E4731
:103940003A502050007072696E7420636F6E666921
:10395000677300746573742073656E6420686F7399
:103960007420756172740000000000006108000896
:10397000010000001908000802000000BD0700084F
:103980001000000085070008706172616D65746544
:103990007220657272210A00000000000102030417
:1039A00000000000000000000102030406070809EF
:1039B00000000000010203040000000001020304F3
:1039C0004C4F434B2056383533205634300A0025AF
:1039D00063203A2025730A00686F6C645077724F39
:1039E0006E2025750A007665722025750A002575FA
:1039F0002049522D435554206261636B7761726494
:103A00000A0025752049522D43555420666F727760
:103A10006172640A0025752049522D435554206275
:103A20007265616B0A0025752049522D435554205B
:103A300073746F700A00657261736520666C6173E0
:103A400068206661696C64210D0A0070726F67728C
:103A5000616D20636865636B206661696C64210D2C
:103A60000A0070726F6772616D20737563636573AE
:103A700073210D0A004C6F6164206F7074696F6E62
:103A8000732073756363657373210D0A00257520B8
:103A9000736C6565702E2E2E2E2E2E0A0025752035
:103AA000486F7374507772557053657450696E0A1D
:103AB00000257520636F756E74646F776E202575B1
:103AC0005320746F20736C6565700A0077616B65B5
:103AD00075700A0025752073656E6420686F7374B5
:103AE00020726571756573740A006C70756172740B
:103AF000200025752000526376486F737448656115
:103B0000643120657272210A00526376486F7374C3
:103B1000486561643220657272210A00536E642028
:103B2000427566204F460A00486F737420636D64C7
:103B3000207077726F66660A00486F73742066653E
:103B4000656420646F670A00486F7374206765744A
:103B50002076657273696F6E0A00527820686F7301
:103B6000742072657365740A00486F7374207365FE
:103B7000742069722D6375740A00486F7374206332
:103B80006D643A005278486F7374002025327800D3
:103B90005263764C6F636B48656164312065727265
:103BA000210A005263764C6F636B48656164322072
:103BB000657272210A00726376204C6F636B20730A
:103BC000756D206572720A005278206C6F636B20ED
:103BD00072657365740A0052784C6F636B00000065
:103BE000003C000800000020080000009438000895
:103BF000083C00080800002098250000A4380008B0
:083C00000024F40000000000A4
:040000050800015599
:00000001FF
