:020000040800F2
:10000000B82500206901000871010008730100088B
:1000100000000000000000000000000000000000E0
:100020000000000000000000000000007501000852
:10003000000000000000000077010008051A000819
:100040007B0100087B0100087B0100087B010008A0
:100050007B0100087B0100087B010008A504000863
:100060007B0100087B0100087B0100087B01000880
:100070007B0100087B0100087B0100087B01000870
:100080007B0100087B0100087B0100087B01000860
:100090007B0100087B0100087B0100087B01000850
:1000A0007B0100087B0100087B010008191C000887
:1000B0007B010008051B00087B0100087B0100088C
:1000C0007B0100087B0100087B0100087B01000820
:1000D0007B0100087B010008000000007B01000894
:1000E0007B0100087B0100087B010008C5040008B3
:1000F00000000000000000000000000025040008CF
:1001000000000000000000000000000000000000EF
:100110000000000000000000000000007B0100085B
:100120007B0100087B0100087B0100087B010008BF
:100130007B010008CD0C00087B0100087B01000852
:100140007B0100087B0100087B0100087B0100089F
:100150007B0100080348854600F014F8004800477A
:10016000552C0008B8250020044880470448004763
:10017000FEE7FEE7FEE7FEE7FEE7FEE7151A0008EA
:10018000550100081CB50948009009480190054632
:100190000126009C05E0E36807CC33430C3C9847FC
:1001A0001034AC42F7D3FFF7D9FF0000043C00083D
:1001B000243C000880B582B0D848C07A08BBFFE76D
:1001C000D6484088E0B1FFE7D4484188491E4180C5
:1001D000408888B9FFE7D148407A012806DBFFE76D
:1001E000CF480168204802F051FBFFE76846002134
:1001F000017001F0B9FAFFE701A9002008702CE0B6
:10020000FFE71848007820B1FFE701A90020087037
:1002100023E0C248C07920B1FFE701A9002008709F
:100220001BE01E48407C20B1FFE701A900200870B8
:1002300013E02748407B20B1FFE701A900200870A8
:100240000BE0B748C07920B1FFE701A90020087092
:1002500003E001A901200870FFE701A8007802B0BF
:1002600080BDC04630010020F53A000880B501F09D
:1002700029FC0A48407C08B9FFE70EE00748C17C2A
:10028000491CC174C07C142807DBFFE70349002028
:100290004874034802F0FAFAFFE780BD3E010020EF
:1002A0009C3B000880B50A48407B08B9FFE70EE098
:1002B0000748C17B491CC173C07B142807DBFFE7DB
:1002C000034900204873034802F0E0FAFFE780BDCD
:1002D0009E110020EC3B00089148C07948B1FFE72F
:1002E0008F48C179491EC171C07908B9FFE7FFE79E
:1002F000FFE7704710B584B0EC49F220085CF322A8
:10030000895C884200D18AE0E848F221415C4018CB
:10031000F421415C03A80170007808281AD1FFE796
:10032000E24840F20411405C98B1FFE7DF4940F237
:100330000412885C401E885403A80290007801F0E3
:10034000E7F9202001F0E4F90298007801F0E0F9E3
:10035000FFE755E0D54840F20411405C0F284EDC21
:10036000FFE703A800780D2805D0FFE703A8007871
:100370000A282AD1FFE7CD4840F20411405C012849
:1003800015DBFFE7C948019040F204110091415C80
:10039000411840F205120D2088540A2001F0B8F9E6
:1003A00000F050F9009A0199002088540CE003A84D
:1003B00000780D2807D1FFE7BA488268BA4848217B
:1003C00002F064FAFFE7FFE718E0B84840F20411D2
:1003D000405C0D2811DCFFE70398B44940F2041299
:1003E0008B5CCB1840F205141855885C401C88546F
:1003F00003A8007801F08CF9FFE7FFE7FFE7FFE7CC
:10040000AA48F221425C521C4254405C102805DB91
:10041000FFE7A649F22200208854FFE7FFE704B077
:1004200010BDC04680B540F2004001F06BFE0128CF
:1004300034D1FFE73948807AB8B1FFE70920C00618
:1004400040F2004102F042F838B9FFE70920C00647
:1004500040F6000102F02AF806E00920C00640F646
:10046000000102F02BF8FFE7FFE70D48006840B9F4
:10047000FFE70B490120086040F2004001F03AFE1E
:100480000CE06E4844F2000102F018F824490A20FA
:10049000C87140F2004001F02DFEFFE780BDC0466C
:1004A000B421002080B5022001F02CFE012807D1E4
:1004B000FFE71B490A20C871022001F01BFEFFE77D
:1004C00080BDC04680B540F2001001F01BFE01283F
:1004D00023D1FFE7ED48807AB8B1FFE70920C006D5
:1004E00040F2001101F0F2FF38B9FFE70920C00621
:1004F00041F2000101F0DAFF06E00920C00641F2F6
:10050000000101F0DBFFFFE7FFE705490A20C871A2
:1005100040F2001001F0EEFDFFE780BD3201002047
:100520002401002080B58CB0AB49002008900870F1
:100530004148019002220A9201230693194601F0D4
:10054000DAFF0198069B089A114602F01BF8019801
:10055000069901F0ABFF019806990A9B1A4601F033
:10056000CAFF0198089A0A9B114602F00BF80198FD
:100570000A9901F09BFF0699089AC548029044F237
:100580000003039301F0B7FF0298039B089A1146FA
:1005900001F0F8FF069A08990A9B2948049001F097
:1005A000AAFF0498069A0899042301F0A4FF069A6A
:1005B00008990920C006059040F20013079301F046
:1005C0009AFF0598069A089940F20043099301F0B2
:1005D00092FF0699084602F06DFF08990A9A1046A4
:1005E00001F018FD0A9801F085FD0898082102F035
:1005F00061FF079808990A9A01F00CFD079801F02D
:1006000079FD08980A2102F055FF089909980A9A7D
:1006100001F000FD099801F06DFD0A99072002F034
:1006200093FB0A992B2002F08FFB0A992F2002F0EE
:100630008BFB0CB080BDC046001400480008004889
:100640000004004880B582B001A900200870FFE7CF
:1006500001A8007804281CD8FFE701A800780C2125
:1006600041431048405C114940F20512895C8842C0
:1006700009D1FFE701A800780C214143094840183F
:10068000406880470CE0FFE70198401C01A9087012
:10069000DEE7044882680448482102F0F7F8FFE7E3
:1006A00002B080BD00390008E439000808000020CD
:1006B00080B582B0E248007C02281FDBFFE72148BA
:1006C00002F0E4F801A900200870FFE701A8007813
:1006D00005280FDCFFE701A80178D94840181C491C
:1006E000415C1C4802F0D2F8FFE70198401C01A9C8
:1006F0000870EBE7144802F0C9F8FFE701A90020F1
:100700000870FFE701A80078032819D8FFE701A8BF
:100710000078C1000D48405CC9490D4A895C884297
:1007200008D1FFE701A80078C100084840184068D8
:10073000804705E0FFE70198401C01A90870E1E748
:1007400002B080BDBC3B00080D3A00089839000893
:1007500059100000CD3B000880B582B0B848007C3D
:10076000012804DBFFE7084802F090F8FFE701A842
:1007700003210170102141700221817000218170DC
:1007800000F0F2FF02B080BD8A3B000880B5AC48A3
:10079000007C012804DBFFE70E4802F077F8FFE752
:1007A0000D48007808B1FFE713E0A5482D49405CEB
:1007B00020B9FFE70849012008700AE0A04829494C
:1007C000405C012804D1FFE7034902200870FFE7DD
:1007D000FFE780BDAB3B00083001002080B59848A2
:1007E000007C012804DBFFE70A4802F04FF8FFE72E
:1007F00093481C49405C012808DBFFE790481949F1
:10080000415C64204843E4498880FFE7E2490120D5
:10081000C87280BD6A3B000880B58948007C012809
:1008200004DBFFE70E4802F031F8FFE7DA49002069
:10083000C87283480B49405CFF2804D1FFE7D649C2
:100840000120C8710AE07E480649405CFE2804D1B8
:10085000FFE7D1490020C871FFE7FFE780BDC04630
:100860007B3B00085A10000080B582B0CA490020C6
:100870008872CB48019048F2000101F017FE019800
:1008800044F2000101F012FE02B080BD32010020EE
:100890000008004880B586B00920C00604900221F7
:1008A0000091002202920123039301F024FE029999
:1008B000039B04981A4601F065FE009B039A049876
:1008C000194601F018FE009B0299039A049801F062
:1008D00059FE029A0399049841F20003019301F032
:1008E0000AFE019B0299039A049801F04BFE0199BC
:1008F000049801F0E3FD029A0399049840F600037E
:10090000059301F0F8FD0299039A0498059B01F004
:1009100039FE0498059901F0D1FD9F48407A0128DD
:1009200006DBFFE7E4480168024801F0AFFFFFE79C
:1009300006B080BDBE3A000880B50920C00640F26E
:10094000001101F0C3FD38B9FFE70920C00641F2EC
:10095000000101F0ABFD06E00920C00641F20001F4
:1009600001F0ACFDFFE70920C00640F2004101F0B4
:10097000ADFD38B9FFE70920C00640F6000101F0DF
:1009800095FD06E00920C00640F6000101F096FD45
:10099000FFE78148407A012806DBFFE7C648016887
:1009A000034801F073FFFFE77B490120887280BD97
:1009B0000B3B000880B586B0F74800210391017415
:1009C00041740181C1808180012201924281418074
:1009D00001804175C175817501751D2002F0B4F962
:1009E000184802F02FFD019A0920C0060290082144
:1009F000059101F0FBFC02980599022201F0F6FC3A
:100A00001148049002F068FE0399049802F054FF24
:100A10000399049802F02CFF0399049802F004FF54
:100A20000498E121490202F0D5FD0498042102F066
:100A300010FF0498059902F030FF06B080BDC04653
:100A40003E01002013070000004C004080B586B036
:100A5000FA4800210491017341730181C1808180B2
:100A60004180018001743D2002F06EF92B4802F0B4
:100A7000E9FC41F6000002F0C3FC0920C006019029
:100A8000082103910422029201F0B0FC0198039A1C
:100A9000114601F0ABFC0198029B049A02210091DF
:100AA00001F029FD0198029B04990122059201F0B1
:100AB00069FD00990198039B059A01F01CFD0198BE
:100AC000039B0499059A01F05DFD01F0DBFD04989C
:100AD00001F0B2FE049801F06FFE049801F04CFEA4
:100AE00042F2805001F094FD029801F057FE039805
:100AF00001F078FE049A05980007114601F08AFA81
:100B00000598400501F082FE052001F0F3FD01F09B
:100B1000C7FD01F075FE06B080BDC046120700009B
:100B200080B586B0C64904208871002003900880F3
:100B3000C871012002904872184802F083FC00F04E
:100B40008DFEFFF791FE0299039A1548009048F236
:100B50000003019301F0CFFC0098019B039A11461A
:100B600001F010FD0098019901F0A8FC0299039A88
:100B70000920C006049040F20023059301F0BBFC5D
:100B8000039A0498059B114601F0FCFC0498059912
:100B900001F094FC06B080BD320100201C0700006B
:100BA0000008004880B586B04148007808B9FFE7E2
:100BB0007BE03F4800780590012808D0FFE70598C2
:100BC00002281ED0FFE70598032834D055E03948A5
:100BD0000490012101F072FC0498022101F066FCEE
:100BE00033490020487003200870F048007A01283B
:100BF00006DBFFE7ED480168324801F047FEFFE7FA
:100C000053E02C480390012101F050FC039802218D
:100C100001F054FC26490020487003200870E34886
:100C2000007A012806DBFFE7E0480168244801F06C
:100C30002DFEFFE739E01E484178491C417040789D
:100C4000142819DBFFE71B480290012101F036FC54
:100C50000298022101F032FC15490878401C087006
:100C6000D248007A012806DBFFE7D0480168134824
:100C700001F00CFEFFE7FFE717E0CC48007A0128FF
:100C800006DBFFE7C94801680F4801F0FFFDFFE7F9
:100C900008480190012101F009FC0198022101F0AE
:100CA00005FC034900200870FFE706B080BDC04680
:100CB000300100200014004824010020363A0008CA
:100CC0000F3A0008233A0008473A000880B582B07E
:100CD0002F4801F021FDC0B1FFE701F0BDFC014646
:100CE00056488288821851748188491C8180808886
:100CF00041F20001884204DBFFE750490020888070
:100D0000FFE74E490020C873FFE7224801F004FDC9
:100D100030B3FFE7494908884988884218D0FFE77F
:100D2000464801900188C74840185921405C01F0AD
:100D30009BFC01980188491C0180008841F2000158
:100D4000884204DBFFE73D4900200880FFE706E01A
:100D5000072001F0BDFCBB4900200875FFE7FFE755
:100D60000E4801F0D9FC01280FD1FFE70C4801F033
:100D70009DFC0120000701F045F9D049087A401C8C
:100D80000872CF4801F0A4FCFFE702B080BDC04666
:100D900005000507070007073E010020160214079B
:100DA0001407000080B582B000200190FFE7019891
:100DB00003280AD8FFE7019A0E4810580B498850BB
:100DC000FFE70198001D0190F1E70848006802283C
:100DD00005D0FFE701F012F900F036FD03E004480A
:100DE00001F054FDFFE702B080BDC04620010020A5
:100DF000963A000800F8010880B5FA48007C90B9DE
:100E0000FFE7AE48807A08B9FFE715E0D948407D92
:100E100008B1FFE710E0D74902204875F149087C86
:100E2000401C0874FFE7EF488088D2494880054895
:100E3000072102F0B7FCFFE780BDC0469E110020ED
:100E400032010020004C004080B582B09B48807980
:100E50000190052800D9A1E001998A0001A080181D
:100E60008746C04600F00AB800F015B800F03AB85E
:100E700000F05CB800F06CB800F07CB8FFF79AF9AD
:100E8000012807D1FFE78D498879401C887100202F
:100E90000880FFE786E0FFF78DF920B9FFE7874973
:100EA000002088717EE085480188491C0180008807
:100EB000642816DBFFE781488179491C8171002194
:100EC0000180407A01280BDBFFE7384801687B4846
:100ED00080886422B0FBF2F2364801F0D7FCFFE7CD
:100EE000FFE75FE0FFF766F920B9FFE773490020ED
:100EF000887157E071490888401C088008888988F3
:100F0000884212D1FFE76D48407A012806DBFFE7EF
:100F100026480168264801F0B9FCFFE7FFF7A4FC6A
:100F200066498879401C8871FFE73BE000F08CF847
:100F300040F2004000210091012201F03BFF00F04F
:100F40001DFF00985D498A79521C8A71088029E04A
:100F50005A480188491C01800088052809DBFFE701
:100F6000FFF798FC55498879401C8871002008805B
:100F7000FFE717E051480188491C01800088642878
:100F80000BDBFFE7FFF7D8FC4C4900208871064ACD
:100F90004A8064228A80C872FFE703E04749002044
:100FA0008871FFE702B080BDB80B0000240100206B
:100FB000AE3A0008D23A000880B582B0164840F236
:100FC00009114018694600F0D1FF014601A80170DF
:100FD000007820B1FFE7114801F058FC19E00E48F5
:100FE00040F20711405C462808D1FFE73349012051
:100FF000C872009A6420504388800AE0064840F294
:101000000711405C4F2804D1FFE700982B49C871B5
:10101000FFE702B080BDC04608000020B8390008D4
:1010200054484189C1804189491C4181408941F22C
:101030000001884204DBFFE74E4900204881FFE7BA
:101040007047C0463E01002080B582B00920C0062E
:101050000321009100220192144B01F04CFA0099F7
:10106000019A1348C02301F046FA0099019A1148E9
:101070004CF2000301F03FFA009B019A0E4819461A
:1010800001F039FA022001F035F840F2001001F0C9
:1010900031F840F2004001F02DF80198074908723C
:1010A000074801F027FB02B080BDC046037800006E
:1010B00000040048000800480014004832010020E5
:1010C0001602000080B582B001A901200870FFE778
:1010D00001A80078042811D8FFE701A800780C22A5
:1010E000424307498818895C8268064801F0CEFBB4
:1010F000FFE70198401C01A90870E9E702B080BD34
:1011000000390008E439000880B582B01948007C35
:10111000022829DBFFE7184801F0B8FBFFE7154973
:101120000889898888421BD0FFE71248019001890D
:1011300040185921415C2D4801F0A8FB0198018914
:10114000491C0181008941F20001884207DBFFE769
:10115000FD4900200881094801F098FBFFE7DEE720
:101160000A2000F0D5FA03E0F74988880881FFE7F4
:1011700002B080BD3E010020C63B00083E3B000897
:1011800080B582B0F148007B022825DBFFE71648D6
:1011900001F07CFBFFE7ED4908898988884217D078
:1011A000FFE7EA48019001894018417C0F4801F0AF
:1011B0006DFB01980189491C0181008941F2000100
:1011C000884204DBFFE7E14900200881FFE7E2E70E
:1011D0000A2000F09DFA03E0DC4988880881FFE7D7
:1011E00002B080BD9E110020FB3B0008CD3B0008F3
:1011F00080B584B0E548407C28BBFFE7E348002188
:101200000176C18840185921405CAA2806D1FFE721
:10121000DE49C88888810120487411E0DB48C18814
:1012200040185921405C5A2809D1FFE7CB4801F00A
:101230002DFBD649C888888107204874FFE7FFE75F
:10124000FFF7EEFE7DE1D148407C012816D1FFE793
:10125000CE48C18840185921405C552807D1FFE786
:10126000CA49487C401C4874FF20887403E0C74981
:1012700000204874FFE7FFF7D3FE62E1C348407CDB
:10128000022830D1FFE7C148C18840185921405C8D
:10129000D0280BD1FFE7BD4903204874887CD030AB
:1012A00088740020C881FFF7BBFE4AE1B748007D83
:1012B000B8B9FFE7B54802900121017505214174D5
:1012C000C188411859228A5C817C89188174062161
:1012D000C1818089E849088000F060FBFFF7A0FE2B
:1012E0002FE1FFE79EE0A948407C072813D1FFE7E4
:1012F000A648C18840185921405C512804D1FFE715
:10130000A2490820487403E0A04900204874FFE780
:10131000FFF786FE15E1FD48407C082813D1FFE762
:10132000FA48C18840185921405C202804D1FFE7C1
:10133000F6490920487403E0F44900204874FFE7A7
:10134000FFF76EFEFDE0F148407C092813D1FFE76E
:10135000EE48C18840185921405C172804D1FFE7A6
:10136000EA490A20487403E0E84900204874FFE78E
:10137000FFF756FEE5E0E548407C0A2813D1FFE779
:10138000E248C18840185921405C022804D1FFE797
:10139000DE490B20487403E0DC4900204874FFE775
:1013A000FFF73EFECDE0D948407C0B2815D1FFE782
:1013B000D648C18840185921405C022806D1FFE771
:1013C000D2490C204874E620887403E0CF490020FD
:1013D0004874FFE7FFF724FEB3E0CC48407C0C28BC
:1013E0001AD1FFE7C948007DA8B9FFE7C7480190B7
:1013F000012101750F214174C188411859228A5C6D
:10140000817C891881740A21C1818089BE49088044
:10141000FFF706FE95E0FFE7FFE7FFE7FFE7FFE7DF
:10142000FFE7FFE7FFE7FFE7B848407C0F2815D14B
:10143000FFE7B648C188411859228A5C817C891827
:101440008174C189491EC181C08920B9FFE7FC4967
:1014500010204874FFE7FFF7E3FD72E0F848407C96
:10146000102808D1FFE700F099FAF54900204874E8
:10147000FFF7D6FD65E0F248407C052817D1FFE76D
:1014800000F08CFAEE48C188411859228A5C817CB0
:1014900089188174C189491EC181C08920B9FFE7BB
:1014A000E74906204874FFE7FFF7BAFD49E0E44842
:1014B000407C03281FD1FFE7E1480090C188411814
:1014C0005922895C03AA11700399C2898218224BA0
:1014D000D154039A817C89188174C189491CC181C6
:1014E000C089062804DBFFE7D54904204874FFE7DC
:1014F000FFF796FD25E0D248407C04280BD1FFE79A
:10150000FFF7D6F8124913484880CD4900204874A7
:10151000FFF786FD15E0CA48407C06280BD1FFE79F
:1015200000F03CFA0A490B484880C549002048743D
:10153000FFF776FD05E0C248407C142801D1FFE7A3
:10154000FFE704B080BDC0463E0100209E11002090
:1015500032010020B80B0000591000002C3B00089D
:1015600080B5B74908898988884203D0FFE7FFF72B
:10157000CBFDFFE7FFE7FA49C8888988884203D096
:10158000FFE7FFF735FEF6E780BDC0463E010020CD
:1015900080B582B0F148407B142801D1FFE768E0B4
:1015A000EE48407B052812D1FFE7EC48C18841187E
:1015B0004A7C817B891881734189491E4181408918
:1015C00020B9FFE7E54906204873FFE751E0F948F5
:1015D000407B062810D1FFE7F649C8880818407CF0
:1015E000897B884204D0FFE7244801F04FF9FFE7E8
:1015F000F049002048733CE0EE48407B70B9FFE7BB
:10160000EC48C1884018407CAA2805D1FFE7E94989
:10161000487B401C487300E0FFE72AE0E548407B38
:10162000012813D1FFE7E348C1884018407C5528C2
:1016300007D1FFE7DF49487B401C4873FF208873D0
:1016400003E0DC4900204873FFE711E0D948407B04
:1016500002280CD1FFE7D749C8880818427C887B4C
:10166000801888730520487306204881FFE7FFE74C
:10167000FFE702B080BDC0469E110020D23B0008AB
:1016800080B5CC4908898988884203D0FFE7FFF7F5
:1016900077FDFFE7C6484088C6498988884203D05D
:1016A000FFE7FFF7A9FB17E0C248007C012812DB27
:1016B000FFE7C048407B68B9FFE7BD490888498813
:1016C000884206D1FFE7BA4900204875B949087435
:1016D000FFE7FFE7FFE7FFE7B649C8888988884248
:1016E00011D0FFE7FFF754FFB248C188491CC18001
:1016F000C08841F20001884204DBFFE7AD490020C9
:10170000C880FFE7FFE780BD9E1100203E0100205A
:1017100080B582B001A908708F4841786846017091
:101720000099491C01700078F02804DBFFE7694646
:1017300000200870FFE768460078874909788842EA
:1017400009D0FFE7019869460A7883498A189070A2
:1017500000984870FFE70348072102F023F802B021
:1017600080BDC0460038014080B584B00390AA20F7
:1017700000F03EF8552000F03BF8D02000F038F89B
:1017800001A9CF20087002A901200870FFE702A874
:10179000007803990978884213DCFFE7039802A9CF
:1017A00000910978405C00F023F8009903980A78CA
:1017B000825C0198801801AA10700298401C087081
:1017C000E5E7FFE702A80078062808DCFFE700202D
:1017D00000F00EF80298401C02A90870F2E701A878
:1017E000007800F005F800F06DF904B080BD00004D
:1017F00080B582B001A90870C148C17D68460170FA
:101800000099491C01700078402804DBFFE7694615
:1018100000200870FFE768460078B949897D884252
:1018200008D0FFE70198FA49CA7D8A1850760098D7
:10183000C87503E0034801F029F8FFE702B080BD56
:101840003E0100205E3B000880B500F071FC00F016
:1018500081FC00F0D9FC00F0F5FC80BD80B582B0C1
:101860000920C00603210091002201920F4B00F0D5
:1018700042FE0099019A0E480E4B00F03CFE009982
:10188000019A0D480D4B00F036FE0099019A0C4864
:101890000C4B00F030FE0099019A0B480B4B00F006
:1018A0002AFE0B4801F0BCFD02B080BDF0800000B4
:1018B0000004004839FF000000080048FF3F000016
:1018C000000C0048FFFF000000140048FCFF00006F
:1018D0001405000080B582B0F34840F209114018A9
:1018E000694600F043FB014601A80170007820B171
:1018F000FFE71D4800F0CAFF2BE0EB4840F207115C
:10190000405C4D2804D1FFE700981649087220E09A
:10191000E54840F20711405C482804D1FFE70098F1
:10192000BB49087415E0E04840F20711405C4C28C0
:1019300004D1FFE70098B74908730AE0DA4840F29B
:101940000711405C502804D1FFE700986B494872AA
:10195000FFE702B080BDC046080000209E110020B5
:101960003E01002024010020B839000880B582B073
:101970000748022100F08AFF6048C179054800F05D
:1019800085FFA348017C044800F080FF02B080BDC1
:10199000073A0008F9390008ED39000880B59C487D
:1019A00040899C494880072000F0A4FE80BDC046C5
:1019B0003E0100209E11002080B584B00290029864
:1019C000401E000E18B1FFE70120039011E00298BD
:1019D000401E0949086000200190C043032100F027
:1019E00083FA019805490860054A072111600390B0
:1019F000FFE7039804B080BD14E000E018E000E0C9
:101A000010E000E002490878401C08707047C046AA
:101A1000B021002010B582B01D4908680122104392
:101A20000860FFE71A4800688007002801D4FFE734
:101A3000F8E718490868032290430860144B1868B7
:101A4000154C204018600868144B1840086008685E
:101A5000134B18400860134908680F239843086027
:101A60001149086840F20313984308600868920718
:101A7000904308600D4900200190086001F090FD3E
:101A800001990120C00601F075F902B010BDC046F1
:101A90000010024004100240FFFFF2FE0C00FF089D
:101AA000FFFF007F2C10024030100240081002405F
:101AB00080B582B001A8012101704170FFF754FE8A
:101AC00002B080BD80B5D748807A08B9FFE713E03F
:101AD0004F49887DC97D884201D1FFE70CE04C4821
:101AE000407D08B1FFE707E04949012048754748B4
:101AF000072101F057FEFFE780BDC04632010020FC
:101B00003E01002080B582B04048664901F05BFE8E
:101B1000D0B1FFE73D4801F0C9FD01463C4882884D
:101B200082185923D1548188491C8180808841F2D0
:101B30000001884204DBFFE7354900208880FFE789
:101B400033490020C874FFE73048584901F03BFE94
:101B5000002859D0FFE72E48407D022824D1FFE716
:101B60002B4908884988884218D0FFE72848019007
:101B7000018828484018417C244801F09FFD0198C5
:101B80000188491C0180008841F20001884204DB81
:101B9000FFE71F4900200880FFE704E01B480721FA
:101BA00001F0EFFDFFE72EE01948407D012824D128
:101BB000FFE71749887DC97D884215D0FFE71448A3
:101BC0000090817D4018417E104801F077FD00981B
:101BD000817D491C8175807D402804DBFFE70C492D
:101BE00000208875FFE707E00848072101F0C9FDDC
:101BF000074900204875FFE704E00448072101F089
:101C0000C0FDFFE7FFE7FFE702B080BD004C0040EA
:101C10003E0100209E11002010B55748214901F0D7
:101C2000D2FDB8B1FFE7544801F040FD02465048EC
:101C3000F321435CC318F4241A55425C521C4254ED
:101C4000405C102805DBFFE74949F3220020885457
:101C5000FFE7FFE74848154901F0B5FD00B3FFE78E
:101C6000434908784978884214D0FFE74048017812
:101C7000491C01700078F02804DBFFE73C49002094
:101C80000870FFE73A480178401881783A4801F037
:101C900015FD04E03848072101F073FDFFE7FFE779
:101CA00010BDC04605000507080000200700070713
:101CB00080B588B02E490020069048700870F32245
:101CC0008854F22288541B20032101F03DF8294852
:101CD00001F0B8FB50480490072101914022029284
:101CE00000F084FB019904988022059200F07EFBAD
:101CF000029B0498069A0221039100F0FCFB029BD0
:101D00000498069A114600F03DFC03990498059B3F
:101D1000012200F0F0FB0498059B069A114600F0A2
:101D200031FC1548079001F0D7FC0699079801F09F
:101D3000C3FD0699079801F09BFD0699079801F0ED
:101D400073FD0798E121490201F044FC0798042142
:101D500001F07FFD0798082101F09FFD079801F031
:101D600007FD0798052101F01DFD08B080BDC046A4
:101D7000080000200E0600000038014080B586B043
:101D80000920C0060090022102910122039242F232
:101D9000000300F0B0FB0098029A44F200031146E1
:101DA00000F0A9FB02991C480190002204924023F4
:101DB00000F0A1FB01980299039A802300F09BFB9D
:101DC0000399049A154805904CF2000300F093FB28
:101DD0000399049A1248032300F08DFB059848F2FA
:101DE000000100F06BFB0F48407A012812DBFFE78F
:101DF0000D4801680D4800F049FD0A48007A0128A5
:101E000004DBFFE70A4800F041FDFFE7094800F066
:101E10003DFDFFE706B080BD000400480008004813
:101E2000001400483201002024010020283B000853
:101E3000203B0008ED3A000881B001466846017079
:101E40000021405600280DD4FFE700216846415686
:101E50001F200A4602400120904049098900024A99
:101E60008850FFE701B0704700E100E070B582B034
:101E7000024601A80270009100214056002816D4A5
:101E8000FFE7002401A908570322D3431840364A2C
:101E9000805809578C07E50EFF24AC40A043009CF6
:101EA000A401E4B2AC402043194088501AE001A9D3
:101EB00008780F24204008380322D3431840294AC9
:101EC0008058002549578D07EE0EFF25B540A843E1
:101ED000009DAD01EDB2B5402843214008391940BD
:101EE0008850FFE702B070BD70B582B0024601A80D
:101EF0000270009100214056002816D4FFE700240C
:101F000001A908570322D3431840174A805809579C
:101F10008C07E50EFF24AC40A043009CA401E4B272
:101F2000AC402043194088501AE001A908780F24DA
:101F3000204008380322D34318400A4A805800251D
:101F400049578D07EE0EFF25B540A843009DAD0112
:101F5000EDB2B54028432140083919408850FFE7C9
:101F600002B070BD1CED00E000E400E087B0059019
:101F7000049105980078302805DBFFE70598007884
:101F80003A2804DBFFE706A9FF20087032E0049935
:101F900000200880FFE70598017800203029029092
:101FA0000DDBFFE7059801780120002200923A2915
:101FB000019001DB0098019001980290FFE70298E0
:101FC000C00798B1FFE704990A880A2050430880A7
:101FD00005980078303803AA1070049908881278A0
:101FE000801808800598401C0590D4E706A90020B9
:101FF0000870FFE706A8007807B07047A2490220E2
:102000000860704781B0009000984849086001B0AE
:102010007047C04685B0049003A8017002A90A70F9
:10202000049B304A116899431160049B2E4A116841
:1020300099431160049B2D4A116899431160049BD8
:102040002B4A1168994311600078019020B1FFE795
:102050000198012806D00BE0049A22490868104331
:10206000086006E0049A204908681043086000E010
:10207000FFE702A80078009003282FD800998A0073
:1020800001A080188746C04600F006B800F00FB8DF
:1020900000F018B800F021B8049A144908681043F9
:1020A0000860049A124908689043086017E0049A8F
:1020B0000E49086890430860049A0D490868104367
:1020C00008600CE0049A0949086810430860049A03
:1020D000074908681043086001E000E0FFE705B029
:1020E0007047C04600040140040401400804014058
:1020F0000C04014081B0009000980C49086001B0C8
:102100007047C04682B000900848006800990842B5
:1021100004D0FFE701A90120087003E001A9002015
:102120000870FFE701A8007802B07047140401406E
:1021300080B582B000F01CF93C20019000F028F836
:10214000504800F033F8019800F022F800F028F829
:1021500002B080BD80B582B04A480190FFE7019887
:10216000094988420ED8FFE701980068401C20B159
:10217000FFE7064800F08AFB04E0FFE70198103013
:102180000190ECE702B080BDFFFF0108573A00085C
:1021900081B0009000987549086001B07047C04652
:1021A00091490868802210430860704780B584B068
:1021B00003900120000500F06DF8014602A80170AF
:1021C0000078D0B9FFE7884901910868022200929F
:1021D0001043086003980B4A1060086840221043BF
:1021E00008600120000500F055F8009A019902AB43
:1021F0001870086890430860FFE702A8007804B0F0
:1022000080BDC0461420024080B582B000F0B0F816
:1022100000200190FFE7019803280ED8FFE7019AFC
:10222000184810181849895800F0B6F80198001D90
:1022300001903C20FFF7ACFFEDE7FFF7B1FF02B0E4
:1022400080BDC04680B582B000200190FFE70198B4
:10225000032811D8FFE7019A0A4810580A498958FB
:10226000884204D0FFE7094800F010FB04E0FFE7D4
:102270000198001D0190EAE7054800F007FB02B055
:1022800080BDC04600F80108200100206C3A00081B
:10229000833A000880B584B0039002A90120087039
:1022A000FFE700F025F802A908700398401E03908C
:1022B000FFE702A8017800200129019005D1FFE77E
:1022C0000398411E88410190FFE70198C00700284C
:1022D000E7D1FFE702A80078012804D1FFE702A9AF
:1022E00005200870FFE702A8007804B080BD000058
:1022F00081B06946002008701C480068C00720B102
:10230000FFE76946012008702BE018480068C00606
:10231000002804D5FFE769460420087020E0134830
:1023200000684007002804D5FFE7694602200870CE
:1023300015E00E4800680007002804D5FFE769464D
:10234000032008700AE0094800680004002804D54A
:10235000FFE7694607200870FFE7FFE7FFE7FFE7B1
:10236000FFE76846007801B07047C0460C20024085
:102370001D4800680006002806D5FFE70349044809
:10238000086004480860FFE77047C0460420024028
:1023900023016745AB89EFCD80B586B005900491E8
:1023A00001200005FFF776FF014603A801700078C1
:1023B000A8B9FFE70C4A029211680120019001437D
:1023C00011600499059A11600005FFF763FF019AF7
:1023D000029903AB1870086890430860FFE703A8F0
:1023E000007806B080BDC0461020024086B005903F
:1023F000049103920598006A01900598406A009044
:1024000002A900200880FFE702A8008807281DD83D
:10241000FFE702A801880398C840C00780B1FFE722
:1024200002A8018889000F228A40019991430191F5
:102430000499008880008140019808430190FFE7DB
:10244000FFE70298401C02A90880DDE702A90820E6
:102450000880FFE702A800880F281FD8FFE702A81E
:1024600001880398C840C00790B1FFE702A801881F
:10247000890020390F228A400099914300910499E4
:102480000088800020388140009808430090FFE7D2
:10249000FFE70298401C02A90880DBE70198059934
:1024A000086200980599486206B0704782B00190B2
:1024B000009100980199886202B0704782B0019043
:1024C000009100980199886102B0704783B0019033
:1024D0000091019800690099084204D0FFE702A921
:1024E0000120087003E002A900200870FFE702A89D
:1024F000007803B0704787B006900591049203936B
:102500000698006801900698C068009002A9002013
:102510000880FFE702A800880F282BD8FFE702A851
:1025200001880398C840C007F0B1FFE702A80188FE
:102530004900032213468B40019999430191059B61
:10254000018849008B400199194301910188490094
:102550008A4000999143009104990088400081408D
:10256000009808430090FFE7FFE70298401C02A98B
:102570000880CFE701980699086000980699C8601E
:1025800007B0704710B586B0059004A8017003929B
:1025900002930078012806D1FFE7029A059948685E
:1025A0001043486005E0029A0599486890434860E6
:1025B000FFE705988068009001A900200880FFE7E8
:1025C00001A800880F281DD8FFE701A801880298FC
:1025D000C840C00780B1FFE701A801884900032275
:1025E0008A400099914300910399008840008140FE
:1025F000009808430090FFE7FFE70198401C01A9FD
:102600000880DDE700980599886006B010BD0000DD
:1026100080B584B00390002002900190092000F062
:1026200007FC029002986422B0FBF2F000020399CA
:10263000C823B1FBF3F3C018B1FBF2F1B0FBF1F02A
:1026400001900198024908400249086004B080BD29
:10265000FFFF0F000C800040024800680749084057
:102660007047C0462480004081B000900098034924
:1026700008400349086001B07047C046FF010000F0
:102680002880004080B582B00448019000F0FEFE32
:10269000019800F0E9FE02B080BDC04612040000BF
:1026A0006E490868012210430860704781B00146F6
:1026B0006846018000881F210840012282400349AA
:1026C00008681043086001B07047C0462080004091
:1026D00081B001466846018000881F2201461140F2
:1026E00001238B4081095D4A88589843885001B086
:1026F0007047C04681B001466846018000881F22AD
:102700000146114001238B408109544A88581843DF
:10271000885001B07047C046B0B584B00290002028
:102720000190009002A8008880094C4A8058029DC0
:102730001F231D4001210C46AC402040019002980F
:10274000800D8058029A1B041A40120C91400840D8
:102750000090009838B1FFE7019820B1FFE703A986
:102760000120087003E003A900200870FFE703A818
:10277000007804B0B0BDC04681B000903749086809
:10278000012290430860086840F2006290430860AC
:10279000009A08681043086001B0704781B000904B
:1027A0002E490868042290430860009A0868104384
:1027B000086001B07047C04681B0009027490868A2
:1027C0000122904308600649086843F200029043E2
:1027D0000860009A08681043086001B07047C0465E
:1027E0000480004081B000901C4908680822904392
:1027F0000860009A08681043086001B07047C0463E
:1028000016490868022210430860704781B00090A2
:102810001249086801229043086006490A680320AB
:10282000000582430A60009A02400868104308606D
:1028300001B070470880004081B0009007490868E7
:102840000122904308600868054A10400860009A19
:1028500008681043086001B07047C046008000401F
:10286000FFEFFFEF83B00290019101200090FFE79E
:102870000198411E019128B1FFE702980099484351
:102880000090F5E7009803B07047000083B080B572
:1028900097B01B931A921991169000200E9019A8C8
:1028A0001590FFE71698007800B9CBE116980078EC
:1028B00025280AD0FFE71698411C16910078FEF7EC
:1028C00027FF0E98401C0E90ECE71698401C1690BF
:1028D0000FA900200870FFE7169801780020302922
:1028E0000D900DDBFFE716980178012000220B9276
:1028F0003A290C9001DB0B980C900C980D90FFE797
:102900000D98C00778B1FFE70F990A2048430FA937
:102910000870169800780F9A80183038087016984A
:10292000401C1690D8E71698007863380A9015284E
:1029300000D97EE10A998A0001A080188746C04626
:1029400000F06DB900F088B800F073B900F071B90B
:1029500000F06FB900F06DB900F06BB900F069B923
:1029600000F067B900F065B900F063B900F061B933
:1029700000F05FB900F05DB900F05BB900F059B943
:1029800000F038B900F055B900F006B800F051B9C0
:1029900000F04FB900F0C0B81598011D15910068FE
:1029A00014901498139012A900200870FFE7139850
:1029B00050B1FFE71298401C12A9087013980A2121
:1029C000B0FBF1F01390F2E70FA8007812A9097894
:1029D000884204DDFFE70F9812A9087008E012A8EA
:1029E000007820B9FFE712A901200870FFE7FFE790
:1029F00012A801780E9840180E9014981390FFE7D3
:102A000012A8007838B3FFE71398079012A809902E
:102A10000078411E0A200890FFF724FF079A0999C1
:102A200003460898B2FBF3F211AB1A700978491EFD
:102A3000FFF718FF01461398B0FBF1F25143401A1B
:102A4000139011983030C0B2FEF762FE09991298C7
:102A5000401E0870D4E7F1E01598011D159100683B
:102A600014901498139012A900200870FFE713988F
:102A700050B1FFE71298401C12A9087013980A2160
:102A800090FBF1F01390F2E70FA8007812A90978F3
:102A9000884204DDFFE70F9812A9087008E012A829
:102AA000007820B9FFE712A901200870FFE7FFE7CF
:102AB00012A801780E9840180E9014981390FFE712
:102AC00012A8007838B3FFE71398049012A8069074
:102AD0000078411E0A200590FFF7C4FE049A06996B
:102AE00003460598B2FBF3F211AB1A700978491E40
:102AF000FFF7B8FE01461398B0FBF1F25143401ABC
:102B0000139011983030C0B2FEF702FE0699129869
:102B1000401E0870D4E791E01598011D15910068DA
:102B200014901498139012A900200870FFE71398CE
:102B300058B1FFE71298401C12A908701398C117EA
:102B4000090F401800111390F1E70FA8007812A99F
:102B50000978884204DDFFE70F9812A9087008E0A1
:102B600012A8007820B9FFE712A901200870FFE73A
:102B7000FFE712A801780E9840180E901498139051
:102B8000FFE712A80078A0B3FFE71398009012A8FF
:102B900001900078411E10200290FFF763FE009A1A
:102BA000019903460298B2FBF3F211AB03931A703A
:102BB0000978491EFFF756FE024603981399B1FBA8
:102BC000F2F35A43891A13910078092806DCFFE7CB
:102BD00011983030C0B2FEF79BFD05E011983730F8
:102BE000C0B2FEF795FDFFE71298401E12A90870CB
:102BF000C7E723E01598011D159100681090FFE7C5
:102C00001098007850B1FFE71098411C109100789F
:102C1000FEF77EFD0E98401C0E90F1E70EE0159831
:102C2000011D15910078FEF773FD0E98401C0E9063
:102C300004E016980078FEF76BFDFFE71698401C3D
:102C400016902FE60E9817B080BC02BC03B08E46DB
:102C50007047000080B584B000200290039040F2DD
:102C6000006000F0EFFB314800F0ECFB304800F072
:102C7000E9FB304800F0E6FB2F4800F0E3FB029848
:102C80002E49087000F090FCFFF712F8FEF78AF862
:102C9000FDF748FCFDF744FFFDF78CFEFDF7D6FE7F
:102CA000029827490860087108722648FFF7EEFD70
:102CB000029800F071F8FFE7214800791F49097870
:102CC00088422ED0FFE71E4901910879401C087107
:102CD0000868401C0860FDF70DFB01984179491C0C
:102CE000417140790A281BD1FFE715490091002066
:102CF0004871FEF7A9F8FDF7B9FAFDF7D3FAFDF729
:102D000051FF00988179491C81718079642806D12E
:102D1000FFE70B4900208871FDF7DEFAFFE7FFE7C8
:102D2000FFE7FEF71DFCFEF7ABFCC5E71105000051
:102D3000120500001305000016050000B021002058
:102D400024010020C839000880B584B00A46014635
:102D500003A80190017002A90A7000220092805617
:102D60000978FFF783F8009901984056FFF764F857
:102D700004B080BD82B00190009101980099044A8E
:102D80001140084303490860BFF34F8F02B07047FA
:102D900080FFFF1F08ED00E081B000902149086826
:102DA0004CF2000290430860009A086810430860E3
:102DB00001B0704783B0029001A8017068460270AC
:102DC00018490868184A10400860029840F200410B
:102DD00088420BD1FFE76846007838B9FFE7114910
:102DE000086840F2004210430860FFE76846027836
:102DF0000C490868104308600C4908680422104315
:102E0000086001A8007810B9FFE730BF03E040BFB9
:102E100020BF20BFFFE705490868042290430860EF
:102E200003B0704700700040FCFBFFFF10ED00E0B6
:102E3000A0B01FA90870002002901E901D901C9049
:102E40001B901A9019901890179016901590149046
:102E500013901290119010900F900E90F9490D91CF
:102E6000F9490C910B900A900991089007910690EE
:102E700005910490F54800680C21084080081E90D8
:102E80001E98039040B1FFE70398012807D0FFE7A1
:102E90000398022806D065E0ED481A9065E0ED48F9
:102EA0001A9062E0E94801683F2292041140890CBF
:102EB000139100680121C9060840C00E12901298B3
:102EC000800113994018139013980F2804D3FFE73B
:102ED0001398401C13900BE013980F2803D1FFE7C1
:102EE0001020139003E01398801C1390FFE7FFE776
:102EF000D6480068032109040840000C119011987D
:102F000070B9FFE7D44800680F210840401C1090BA
:102F10001099CF48B0FBF1F1139848431A9020E084
:102F2000119801280ED1FFE7CB4800680F21084017
:102F3000401C10901099C748B0FBF1F1139848431A
:102F40001A900DE0C44800680F210840401C109002
:102F50001099C248B0FBF1F1139848431A90FFE76B
:102F6000FFE702E0BA481A90FFE7B8480168C9B223
:102F700009090F910F9A0AA9895C0E911A990E9A64
:102F8000D1401991016840F200721140090A0F9175
:102F90000F9A08A9895C0E9119990E9AD14018913F
:102FA000006843F600010840C00A0F900F9906A878
:102FB000405C0E9019980E99C84017901FA8007891
:102FC00001900B2800D90FE201998A0001A0801816
:102FD0008746C04600F016B800F017B800F018B8E1
:102FE00000F019B800F01AB800F0EBB800F0FCB926
:102FF00000F0FAB900F0F8B900F06FB900F01CB9B0
:1030000000F0AEB91A981B90EFE119981B90ECE113
:1030100018981B90E9E117981B90E6E1F7480068C3
:1030200040F200110840884203D0FFE7F1481690B3
:10303000C4E0EF48006880B2800B1D90F74800683C
:10304000800F1C901D980090032800D9B4E00099CF
:103050008A0001A08018874600F006B800F02EB85C
:1030600000F056B800F080B81C9820B9FFE7179818
:103070004008169021E01C98012806D1FFE7179818
:103080000A21B0FBF1F0169016E01C98022806D138
:10309000FFE719980321B0FBF1F016900BE01C98A4
:1030A000032806D1FFE719980B21B0FBF1F0169029
:1030B00000E0FFE7FFE7FFE7FFE77EE01C9820B9AD
:1030C000FFE717988008169021E01C98012806D188
:1030D000FFE717980C21B0FBF1F0169016E01C9852
:1030E000022806D1FFE719980521B0FBF1F01690F0
:1030F0000BE01C98032806D1FFE719980D21B0FBBF
:10310000F1F0169000E0FFE7FFE7FFE7FFE754E08C
:103110001C9830B9FFE717980621B0FBF1F0169024
:1031200021E01C98012806D1FFE717980E21B0FB7B
:10313000F1F0169016E01C98022806D1FFE71998C6
:103140000721B0FBF1F016900BE01C98032806D184
:10315000FFE719980F21B0FBF1F0169000E0FFE7B0
:10316000FFE7FFE7FFE728E01C9820B9FFE7179883
:10317000C00816901FE01C98012804D1FFE717989B
:103180000009169016E01C98022806D1FFE719984E
:103190000921B0FBF1F016900BE01C98032806D132
:1031A000FFE719981121B0FBF1F0169000E0FFE75E
:1031B000FFE7FFE7FFE700E0FFE7FFE716981B9058
:1031C00013E196480068800718B9FFE71798159033
:1031D0002FE09248006803210840012803D1FFE74F
:1031E0001A98159024E08D480068032108400228B1
:1031F00004D1FFE748F20000159018E08748006806
:1032000003210840032810D1FFE784480068072104
:1032100089040840800C0F900F9904A8405C0E9020
:103220000E997548C840159000E0FFE7FFE7FFE7FB
:10323000FFE715981B90D8E0784800688003800F5E
:1032400088B90DE0060708090102030404100240D2
:103250000024F40000127A002C100240006CDC0202
:103260001898159036E06D4800680321090408405D
:1032700001210904884203D1FFE71A98159028E03C
:103280006648006803210904084001214904884276
:1032900004D1FFE748F20000159019E05F4800688C
:1032A000032109040840884210D1FFE75B48006809
:1032B000072189040840800C0F900F9904A8405CF6
:1032C0000E900E994C48C840159000E0FFE7FFE7CC
:1032D000FFE7FFE715981B9087E050480068C0049F
:1032E000800F18B9FFE71898159036E04B48006832
:1032F00041F60001084040F60001884203D1FFE793
:103300001A98159028E04548006841F600010840E9
:1033100041F20001884204D1FFE748F20000159015
:1033200019E03E48006841F600010840884210D18B
:10333000FFE73A480068072189040840800C0F9095
:103340000F9904A8405C0E900E992B48C840159028
:1033500000E0FFE7FFE7FFE7FFE715981B9044E079
:103360002E4800684005800F18B9FFE718981490A0
:1033700037E02A48006840F20061084040F200212E
:10338000884204D1FFE747F60050149028E0234814
:10339000006840F20061084040F20041884204D1D8
:1033A000FFE748F20000149019E01C48006840F262
:1033B00000610840884210D1FFE7184800680721E3
:1033C00089040840800C0F900F9904A8405C0E906F
:1033D0000E990948C840159000E0FFE7FFE7FFE7B6
:1033E000FFE714981B9000E0FFE71B9820B07047A0
:1033F00004100240006CDC020024F4003010024093
:1034000081B000900549086841F6000290430860C9
:10341000009A08681043086001B0704730100240FD
:1034200081B001466846018000881F220146114094
:1034300001238B4081091E4A88589843885001B067
:103440007047C04681B001466846018000881F224F
:103450000146114001238B408109154A88581843C1
:10346000885001B07047C04681B00146684601806F
:1034700000881F220146114001238B4081090C4A1C
:1034800088589843885001B07047C04681B00146C3
:103490006846018000881F220146114001238B40AD
:1034A0008109034A88581843885001B07047C046C4
:1034B0000010024085B00A4604A9087003A80270F3
:1034C00002789207130F0F229A40D2430292097892
:1034D00002789207120F91400191007880080090C5
:1034E000032835D800998A0001A080188746C04675
:1034F00000F006B800F00EB800F016B800F01EB8E4
:10350000029A1849086810400860019A0868104338
:1035100008601EE0029A1249086810400860019A8B
:1035200008681043086014E0029A0C4908681040CB
:103530000860019A0868104308600AE0029A064988
:10354000086810400860019A08681043086000E0AD
:10355000FFE705B07047C04614000140100001406D
:103560000C0001400800014081B00C49009108683E
:1035700008600868086008680860086803229043CB
:10358000086008680860FFE7044800680007800FCB
:1035900008B1FFE7F8E701B07047C04604100240E9
:1035A00080B5FFF7E1FF80BD80B50948006840F2B3
:1035B000E831B0FBF1F0FEF7FFF910B1FFE7FFE7EC
:1035C000FEE70020C0430321FEF78EFC80BDC0460D
:1035D0000000002080B588B007900691002005907B
:1035E000049003900290079801905949884214D0A2
:1035F000FFE701985749884214D0FFE701985649E0
:10360000884214D0FFE701985449884214D1FFE75B
:103610000520FFF70DFC05900FE00A20FFF708FCDE
:1036200005900AE00220FFF703FC059005E0022068
:10363000FFF7FEFB059000E0FFE707980068000435
:10364000002818D5FFE70598400006994A08801819
:10365000B0FBF1F0029002981349084004900298E0
:103660000007400F039004A8008803A909880843B5
:103670000799C86016E0059806994A088018B0FBBB
:10368000F1F00290029808490840049002980F2136
:103690000840039004A8008803A9098808430799F3
:1036A000C860FFE708B080BDF0FF000081B0009067
:1036B0000098406A0749084001B0704782B0019005
:1036C000684601800088034908400199886202B079
:1036D0007047C046FF01000080B586B00590059890
:1036E00004901B49884217D0FFE704981949884283
:1036F0001AD0FFE70498184988421DD0FFE70498C4
:103700001649884220D1FFE718480390FFF7BEFE14
:103710000398FFF7A9FE18E013480290FFF7B6FEE2
:103720000298FFF7A1FE10E00E480190FFF7AEFEF1
:103730000198FFF799FE08E009480090FFF7A6FE00
:103740000098FFF791FE00E0FFE706B080BDC0469D
:1037500000440040004C0040005000400038014050
:103760001404000013040000110400000E03000004
:1037700081B000900099086801221043086001B0F0
:10378000704782B001906846018000881F22014680
:10379000114001238B400199820988589843885031
:1037A00002B0704782B001906846018000881F22F5
:1037B0000146114001238B40019982098858184322
:1037C000885002B0704710B585B003900291002078
:1037D00001900090039802A9098889094058029C29
:1037E0001F231C4001210A46A2401040019003986B
:1037F000029A920D8058029A1B041A40120C9140B2
:1038000008400090009838B1FFE7019820B1FFE729
:1038100004A90120087003E004A900200870FFE754
:1038200004A8007805B010BD82B001900091019904
:1038300008680122904308600199086840F200621C
:1038400090430860009A019908681043086002B02C
:10385000704782B00190009101990868042290435A
:103860000860009A019908681043086002B0704728
:1038700082B001900091019908680122904308608C
:103880000199486843F2000290434860009A019908
:1038900048681043486002B0704782B001900091C0
:1038A00001990868082290430860009A0199086805
:1038B0001043086002B0704782B0019000910199F6
:1038C00008680122904308600199086841F20002EB
:1038D00090430860009A019908681043086002B09C
:1038E000704702E008C8121F08C1002AFAD17047C9
:1038F0007047002001E001C1121F002AFBD1704770
:1039000048000000C51000085239000844000000BB
:103910006D190008763900084D000000B90F000845
:103920003C39000854000000B11A0008843900082E
:1039300050000000D51800085D3900087077726FDC
:1039400066663A4D20463B686F6C644F6E3A4D2078
:103950004F007072696E7420636D64730044424757
:103960002E484F53543A5020483B505752204D4E0A
:10397000473A502050007072696E7420636F6E6613
:1039800069677300746573742073656E6420686F73
:10399000737420756172740000000000190800083B
:1039A00001000000DD070008020000008D0700088C
:1039B0001000000059070008706172616D65746540
:1039C0007220657272210A004C4F434B20563835E5
:1039D00033205634300A00465744475420726573EA
:1039E00065740A002563203A2025730A00486F7326
:1039F000744462672025750A00686F6C64507772A2
:103A00004F6E2025750A007665722025750A0025FF
:103A1000752049522D435554206261636B77617262
:103A2000640A0025752049522D43555420666F7253
:103A3000776172640A0025752049522D4355542040
:103A4000627265616B0A0025752049522D435554F9
:103A50002073746F700A00657261736520666C6113
:103A60007368206661696C64210D0A0070726F676B
:103A700072616D20636865636B206661696C6421A7
:103A80000D0A0070726F6772616D207375636365F4
:103A90007373210D0A004C6F6164206F7074696F3D
:103AA0006E732073756363657373210D0A0025754A
:103AB00020736C6565702E2E2E2E2E2E0A00257515
:103AC00020486F7374507772557053657450696EE7
:103AD0000A00257520636F756E74646F776E2025FC
:103AE000755320746F20736C6565700A0077616B85
:103AF0006575700A0025752073656E6420686F73A4
:103B00007420726571756573740A00257520486F9D
:103B1000737453746172745570456E4F75740A00F6
:103B20006C707561727420002575200052637620D8
:103B3000627566203D3D2030783541200A00507284
:103B4000696E74526376203E3D205243565F484F63
:103B500053545F4255465F53495A45200A00536EFD
:103B60006420427566204F460A00486F73742063D4
:103B70006D64207077726F66660A00486F737420F8
:103B80006665656420646F670A00486F7374206718
:103B900065742076657273696F6E0A0052782068CA
:103BA0006F73742072657365740A00486F737420B4
:103BB0007365742069722D6375740A00486F73749D
:103BC00020636D643A005278486F73740020253288
:103BD000780048616E646C6552637620213D205206
:103BE0006376436865636B53756D0A005278206C89
:103BF0006F636B2072657365740A0052784C6F6353
:103C00006B000000283C00080000002008000000B5
:103C1000E2380008303C000808000020B025000011
:103C2000F2380008000000000024F400000000004A
:040000050800015599
:00000001FF
